{"contracts/ERC20_TokenSwappingContract.sol":{"AtomicSwapERC20":{"abi":[{"anonymous":false,"inputs":[{"indexed":false,"internalType":"uint256","name":"swapId","type":"uint256"}],"name":"Close","type":"event"},{"anonymous":false,"inputs":[{"indexed":false,"internalType":"uint256","name":"_swapID","type":"uint256"},{"indexed":false,"internalType":"uint256","name":"_timelock","type":"uint256"},{"indexed":false,"internalType":"address","name":"_erc20ContractAddressDT","type":"address"},{"indexed":false,"internalType":"address","name":"_erc20ContractAddressWDT","type":"address"},{"indexed":false,"internalType":"uint256","name":"_erc20TokenAmountDT","type":"uint256"},{"indexed":false,"internalType":"uint256","name":"_erc20TokenAmountWDT","type":"uint256"},{"indexed":false,"internalType":"address","name":"_whoInitiatedTrade","type":"address"}],"name":"Open","type":"event"},{"inputs":[{"internalType":"uint256","name":"_swapId","type":"uint256"}],"name":"check","outputs":[{"internalType":"address","name":"erc20ContractAddressDT","type":"address"},{"internalType":"uint256","name":"erc20TokenAmountDT","type":"uint256"},{"internalType":"address","name":"erc20ContractAddressWDT","type":"address"},{"internalType":"uint256","name":"erc20TokenAmountWDT","type":"uint256"},{"internalType":"uint256","name":"timeLock","type":"uint256"},{"internalType":"address","name":"whoInitiatedTrade","type":"address"}],"stateMutability":"view","type":"function"},{"inputs":[{"internalType":"uint256","name":"_swapId","type":"uint256"}],"name":"close","outputs":[],"stateMutability":"nonpayable","type":"function"},{"inputs":[{"internalType":"uint256","name":"_swapId","type":"uint256"}],"name":"expire","outputs":[],"stateMutability":"nonpayable","type":"function"},{"inputs":[{"internalType":"uint256","name":"_swapId","type":"uint256"},{"internalType":"address","name":"_erc20ContractAddressDT","type":"address"},{"internalType":"uint256","name":"_erc20ValueDT","type":"uint256"},{"internalType":"address","name":"_erc20ContractAddressWDT","type":"address"},{"internalType":"uint256","name":"_erc20ValueWDT","type":"uint256"},{"internalType":"uint256","name":"_timeLock","type":"uint256"}],"name":"open","outputs":[],"stateMutability":"nonpayable","type":"function"},{"inputs":[{"internalType":"uint256","name":"","type":"uint256"}],"name":"swapStates","outputs":[{"internalType":"enum AtomicSwapERC20.States","name":"","type":"uint8"}],"stateMutability":"view","type":"function"},{"inputs":[{"internalType":"uint256","name":"","type":"uint256"}],"name":"swaps","outputs":[{"internalType":"uint256","name":"swapId","type":"uint256"},{"internalType":"uint256","name":"startTime","type":"uint256"},{"internalType":"uint256","name":"timeLock","type":"uint256"},{"internalType":"address","name":"erc20ContractAddressDT","type":"address"},{"internalType":"address","name":"erc20ContractAddressWDT","type":"address"},{"internalType":"uint256","name":"erc20TokenAmountDT","type":"uint256"},{"internalType":"uint256","name":"erc20TokenAmountWDT","type":"uint256"},{"internalType":"address","name":"whoInitiatedTrade","type":"address"}],"stateMutability":"view","type":"function"}],"evm":{"bytecode":{"linkReferences":{},"object":"608060405234801561001057600080fd5b50611a8f806100206000396000f3fe608060405234801561001057600080fd5b50600436106100625760003560e01c8063055fabf4146100675780630aebeb4e146100835780635f72f4501461009f578063bf81bf43146100d4578063f09c5829146100f0578063fe8b3baa14610127575b600080fd5b610081600480360381019061007c9190611589565b610157565b005b61009d6004803603810190610098919061152f565b610604565b005b6100b960048036038101906100b4919061152f565b610d84565b6040516100cb96959493929190611712565b60405180910390f35b6100ee60048036038101906100e9919061152f565b610f7b565b005b61010a6004803603810190610105919061152f565b6113e3565b60405161011e989796959493929190611858565b60405180910390f35b610141600480360381019061013c919061152f565b61148b565b60405161014e9190611773565b60405180910390f35b61016b67a2e19336b2f8ef6660c01b6114ab565b61017f674d64c5a75e8c51ec60c01b6114ab565b610193679133ec30cc8e21a160c01b6114ab565b60008590506101ac67ed68028b772fd8f360c01b6114ab565b6101c067d13fe66bf2dbba9260c01b6114ab565b6101d467de7e66aa9983375b60c01b6114ab565b848173ffffffffffffffffffffffffffffffffffffffff1663dd62ed3e33306040518363ffffffff1660e01b8152600401610210929190611689565b60206040518083038186803b15801561022857600080fd5b505afa15801561023c573d6000803e3d6000fd5b505050506040513d601f19601f82011682018060405250810190610260919061155c565b101561026b57600080fd5b61027f67a2e71aa7d81460a760c01b6114ab565b610293679b8f192690db4e5d60c01b6114ab565b6102a767f63c115d6c6d825360c01b6114ab565b6102bb674db7651f937bd96a60c01b6114ab565b8073ffffffffffffffffffffffffffffffffffffffff166323b872dd3330886040518463ffffffff1660e01b81526004016102f8939291906116b2565b602060405180830381600087803b15801561031257600080fd5b505af1158015610326573d6000803e3d6000fd5b505050506040513d601f19601f8201168201806040525081019061034a9190611502565b61035357600080fd5b6103676706882a967b7c026b60c01b6114ab565b61037a66dc0b384d5503a960c01b6114ab565b61038e672ff719840c69bfb960c01b6114ab565b60006040518061010001604052808981526020014281526020018481526020018873ffffffffffffffffffffffffffffffffffffffff1681526020018673ffffffffffffffffffffffffffffffffffffffff1681526020018781526020018581526020013373ffffffffffffffffffffffffffffffffffffffff168152509050610422676c9c9724ea6caf9960c01b6114ab565b806000808a815260200190815260200160002060008201518160000155602082015181600101556040820151816002015560608201518160030160006101000a81548173ffffffffffffffffffffffffffffffffffffffff021916908373ffffffffffffffffffffffffffffffffffffffff16021790555060808201518160040160006101000a81548173ffffffffffffffffffffffffffffffffffffffff021916908373ffffffffffffffffffffffffffffffffffffffff16021790555060a0820151816005015560c0820151816006015560e08201518160070160006101000a81548173ffffffffffffffffffffffffffffffffffffffff021916908373ffffffffffffffffffffffffffffffffffffffff16021790555090505061055367a75f7e0e2c1435fd60c01b6114ab565b6000600160008a815260200190815260200160002060006101000a81548160ff0219169083600281111561058a57610589611954565b5b02179055506105a367b59c911b3c7d608260c01b6114ab565b6105b767fd001e1700d5f35d60c01b6114ab565b7f6585f302baa66637b36c127a1a548986f058fb796cfeec8e35be8d6ad96a5fee888489888a89336040516105f297969594939291906117e9565b60405180910390a15050505050505050565b6106186791ac58cfbe56c31960c01b6114ab565b8061062d677367b3977e0707e360c01b6114ab565b61064167274ceba91a20d5b060c01b6114ab565b61065567b1480dcf7fc73b9860c01b6114ab565b61066967c9698764014d104a60c01b6114ab565b6000600281111561067d5761067c611954565b5b6001600083815260200190815260200160002060009054906101000a900460ff1660028111156106b0576106af611954565b5b146106f0576040517f08c379a00000000000000000000000000000000000000000000000000000000081526004016106e7906117ae565b60405180910390fd5b610704679a11ef46655c5f9560c01b6114ab565b610718677e158120276a305860c01b6114ab565b61072c672eb75429eb5f7b2860c01b6114ab565b610740679a5c43bb484a5a9760c01b6114ab565b61075467e37dc263ea22a92c60c01b6114ab565b610768670999e6aa4f24c0c360c01b6114ab565b6000806000848152602001908152602001600020604051806101000160405290816000820154815260200160018201548152602001600282015481526020016003820160009054906101000a900473ffffffffffffffffffffffffffffffffffffffff1673ffffffffffffffffffffffffffffffffffffffff1673ffffffffffffffffffffffffffffffffffffffff1681526020016004820160009054906101000a900473ffffffffffffffffffffffffffffffffffffffff1673ffffffffffffffffffffffffffffffffffffffff1673ffffffffffffffffffffffffffffffffffffffff16815260200160058201548152602001600682015481526020016007820160009054906101000a900473ffffffffffffffffffffffffffffffffffffffff1673ffffffffffffffffffffffffffffffffffffffff1673ffffffffffffffffffffffffffffffffffffffff168152505090506108d2675acd4b31d4a0612d60c01b6114ab565b600180600085815260200190815260200160002060006101000a81548160ff0219169083600281111561090857610907611954565b5b021790555061092167fe133f4e5967243060c01b6114ab565b61093567d97969b3982a094560c01b6114ab565b60008160600151905061095267950aebf8b4f7d25f60c01b6114ab565b61096667adc1ee859bc1dbb560c01b6114ab565b600082608001519050610983673748d300b339cdc460c01b6114ab565b610997673ff0c9f8f6c0b7df60c01b6114ab565b6109ab67eb0de9930abc54b860c01b6114ab565b8073ffffffffffffffffffffffffffffffffffffffff1663dd62ed3e33306040518363ffffffff1660e01b81526004016109e6929190611689565b60206040518083038186803b1580156109fe57600080fd5b505afa158015610a12573d6000803e3d6000fd5b505050506040513d601f19601f82011682018060405250810190610a36919061155c565b8360c001511115610a4657600080fd5b610a5a67e9702762c9f9323460c01b6114ab565b610a6e67dd1ac2d687cccb7760c01b6114ab565b610a8267a5292d94b09a854e60c01b6114ab565b610a9667c5efead5b7a1d72860c01b6114ab565b8073ffffffffffffffffffffffffffffffffffffffff166323b872dd33308660c001516040518463ffffffff1660e01b8152600401610ad7939291906116b2565b602060405180830381600087803b158015610af157600080fd5b505af1158015610b05573d6000803e3d6000fd5b505050506040513d601f19601f82011682018060405250810190610b299190611502565b610b3257600080fd5b610b46673b8590b1900f612660c01b6114ab565b610b5a674163e74403f9d8e960c01b6114ab565b610b6e67d353254de76fef3a60c01b6114ab565b610b8267c9f94c938fda908a60c01b6114ab565b8173ffffffffffffffffffffffffffffffffffffffff1663a9059cbb338560a001516040518363ffffffff1660e01b8152600401610bc19291906116e9565b602060405180830381600087803b158015610bdb57600080fd5b505af1158015610bef573d6000803e3d6000fd5b505050506040513d601f19601f82011682018060405250810190610c139190611502565b610c1c57600080fd5b610c30673defac7dd8813a6460c01b6114ab565b610c4467cd550fd6542e936c60c01b6114ab565b610c58672b5352995d5debb360c01b6114ab565b610c6c6720cca1367117d3de60c01b6114ab565b8073ffffffffffffffffffffffffffffffffffffffff1663a9059cbb8460e001518560c001516040518363ffffffff1660e01b8152600401610caf9291906116e9565b602060405180830381600087803b158015610cc957600080fd5b505af1158015610cdd573d6000803e3d6000fd5b505050506040513d601f19601f82011682018060405250810190610d019190611502565b610d0a57600080fd5b610d1e672dfc77ab1c697a1f60c01b6114ab565b610d32672cc73cb5a6b5e15260c01b6114ab565b610d466796fb57f93b42ddbd60c01b6114ab565b7fbf67515a38ee520223d32c1266d52101c30d936ed1f3e436c8caeb0a43cb06bf85604051610d7591906117ce565b60405180910390a15050505050565b600080600080600080610da1670a1a9946285abd4060c01b6114ab565b610db5673bf21eb2556655e060c01b6114ab565b610dc9679ca6f1bc392b637c60c01b6114ab565b6000806000898152602001908152602001600020604051806101000160405290816000820154815260200160018201548152602001600282015481526020016003820160009054906101000a900473ffffffffffffffffffffffffffffffffffffffff1673ffffffffffffffffffffffffffffffffffffffff1673ffffffffffffffffffffffffffffffffffffffff1681526020016004820160009054906101000a900473ffffffffffffffffffffffffffffffffffffffff1673ffffffffffffffffffffffffffffffffffffffff1673ffffffffffffffffffffffffffffffffffffffff16815260200160058201548152602001600682015481526020016007820160009054906101000a900473ffffffffffffffffffffffffffffffffffffffff1673ffffffffffffffffffffffffffffffffffffffff1673ffffffffffffffffffffffffffffffffffffffff16815250509050610f33674d269dff6ede2dcf60c01b6114ab565b610f4767a11294bf48fefc4260c01b6114ab565b80606001518160a0015182608001518360c0015184604001518560e001519650965096509650965096505091939550919395565b610f8f677114bc2374a226de60c01b6114ab565b80610fa4677367b3977e0707e360c01b6114ab565b610fb867274ceba91a20d5b060c01b6114ab565b610fcc67b1480dcf7fc73b9860c01b6114ab565b610fe067c9698764014d104a60c01b6114ab565b60006002811115610ff457610ff3611954565b5b6001600083815260200190815260200160002060009054906101000a900460ff16600281111561102757611026611954565b5b14611067576040517f08c379a000000000000000000000000000000000000000000000000000000000815260040161105e906117ae565b60405180910390fd5b61107b679a11ef46655c5f9560c01b6114ab565b61108f677e158120276a305860c01b6114ab565b6110a367ec9c224ef7515e2060c01b6114ab565b6110b7671d184a534742722760c01b6114ab565b816110cc67eb727340fdf0f0c560c01b6114ab565b6110e067f01c9c743878e85e60c01b6114ab565b6110f467d823672be30f10f260c01b6114ab565b6111086746d24b33811bb34860c01b6114ab565b60008082815260200190815260200160002060070160009054906101000a900473ffffffffffffffffffffffffffffffffffffffff1673ffffffffffffffffffffffffffffffffffffffff163373ffffffffffffffffffffffffffffffffffffffff16146111ab576040517f08c379a00000000000000000000000000000000000000000000000000000000081526004016111a29061178e565b60405180910390fd5b6111bf6782e3872f7e2b462a60c01b6114ab565b6111d367308c029139653c6460c01b6114ab565b6111e76785355ed1add953a260c01b6114ab565b6111fb6798b11b2d7a85de4560c01b6114ab565b61120f677a547703a9f0e3d060c01b6114ab565b60026001600085815260200190815260200160002060006101000a81548160ff0219169083600281111561124657611245611954565b5b021790555061125f679d625433195ff95260c01b6114ab565b611273672bd844fc18b18cc560c01b6114ab565b600080600085815260200190815260200160002060030160009054906101000a900473ffffffffffffffffffffffffffffffffffffffff1690506112c167e55713d7b0dabc5f60c01b6114ab565b6112d56779995484ba81b78860c01b6114ab565b6112e9676fa80d3f1a04a35260c01b6114ab565b8073ffffffffffffffffffffffffffffffffffffffff1663a9059cbb60008087815260200190815260200160002060070160009054906101000a900473ffffffffffffffffffffffffffffffffffffffff16600080888152602001908152602001600020600501546040518363ffffffff1660e01b815260040161136e9291906116e9565b602060405180830381600087803b15801561138857600080fd5b505af115801561139c573d6000803e3d6000fd5b505050506040513d601f19601f820116820180604052508101906113c09190611502565b6113c957600080fd5b6113dd6764126df52a3fbc6d60c01b6114ab565b50505050565b60006020528060005260406000206000915090508060000154908060010154908060020154908060030160009054906101000a900473ffffffffffffffffffffffffffffffffffffffff16908060040160009054906101000a900473ffffffffffffffffffffffffffffffffffffffff16908060050154908060060154908060070160009054906101000a900473ffffffffffffffffffffffffffffffffffffffff16905088565b60016020528060005260406000206000915054906101000a900460ff1681565b50565b6000813590506114bd81611a14565b92915050565b6000815190506114d281611a2b565b92915050565b6000813590506114e781611a42565b92915050565b6000815190506114fc81611a42565b92915050565b60006020828403121561151857611517611983565b5b6000611526848285016114c3565b91505092915050565b60006020828403121561154557611544611983565b5b6000611553848285016114d8565b91505092915050565b60006020828403121561157257611571611983565b5b6000611580848285016114ed565b91505092915050565b60008060008060008060c087890312156115a6576115a5611983565b5b60006115b489828a016114d8565b96505060206115c589828a016114ae565b95505060406115d689828a016114d8565b94505060606115e789828a016114ae565b93505060806115f889828a016114d8565b92505060a061160989828a016114d8565b9150509295509295509295565b61161f816118e7565b82525050565b61162e81611942565b82525050565b6000611641602b836118d6565b915061164c82611988565b604082019050919050565b60006116646016836118d6565b915061166f826119d7565b602082019050919050565b61168381611938565b82525050565b600060408201905061169e6000830185611616565b6116ab6020830184611616565b9392505050565b60006060820190506116c76000830186611616565b6116d46020830185611616565b6116e1604083018461167a565b949350505050565b60006040820190506116fe6000830185611616565b61170b602083018461167a565b9392505050565b600060c0820190506117276000830189611616565b611734602083018861167a565b6117416040830187611616565b61174e606083018661167a565b61175b608083018561167a565b61176860a0830184611616565b979650505050505050565b60006020820190506117886000830184611625565b92915050565b600060208201905081810360008301526117a781611634565b9050919050565b600060208201905081810360008301526117c781611657565b9050919050565b60006020820190506117e3600083018461167a565b92915050565b600060e0820190506117fe600083018a61167a565b61180b602083018961167a565b6118186040830188611616565b6118256060830187611616565b611832608083018661167a565b61183f60a083018561167a565b61184c60c0830184611616565b98975050505050505050565b60006101008201905061186e600083018b61167a565b61187b602083018a61167a565b611888604083018961167a565b6118956060830188611616565b6118a26080830187611616565b6118af60a083018661167a565b6118bc60c083018561167a565b6118c960e0830184611616565b9998505050505050505050565b600082825260208201905092915050565b60006118f282611918565b9050919050565b60008115159050919050565b600081905061191382611a00565b919050565b600073ffffffffffffffffffffffffffffffffffffffff82169050919050565b6000819050919050565b600061194d82611905565b9050919050565b7f4e487b7100000000000000000000000000000000000000000000000000000000600052602160045260246000fd5b600080fd5b7f596f7520617265206e6f7420706572736f6e2077686f20696e6974696174656460008201527f2074686520747261646521000000000000000000000000000000000000000000602082015250565b7f497473206e6f74204f50454e20666f7220737761702100000000000000000000600082015250565b60038110611a1157611a10611954565b5b50565b611a1d816118e7565b8114611a2857600080fd5b50565b611a34816118f9565b8114611a3f57600080fd5b50565b611a4b81611938565b8114611a5657600080fd5b5056fea2646970667358221220d338852de91310ed9c56046cea5964b56ae1ff9678de7f7272bbd4aa5d46dd9b64736f6c63430008070033","opcodes":"PUSH1 0x80 PUSH1 0x40 MSTORE CALLVALUE DUP1 ISZERO PUSH2 0x10 JUMPI PUSH1 0x0 DUP1 REVERT JUMPDEST POP PUSH2 0x1A8F DUP1 PUSH2 0x20 PUSH1 0x0 CODECOPY PUSH1 0x0 RETURN INVALID PUSH1 0x80 PUSH1 0x40 MSTORE CALLVALUE DUP1 ISZERO PUSH2 0x10 JUMPI PUSH1 0x0 DUP1 REVERT JUMPDEST POP PUSH1 0x4 CALLDATASIZE LT PUSH2 0x62 JUMPI PUSH1 0x0 CALLDATALOAD PUSH1 0xE0 SHR DUP1 PUSH4 0x55FABF4 EQ PUSH2 0x67 JUMPI DUP1 PUSH4 0xAEBEB4E EQ PUSH2 0x83 JUMPI DUP1 PUSH4 0x5F72F450 EQ PUSH2 0x9F JUMPI DUP1 PUSH4 0xBF81BF43 EQ PUSH2 0xD4 JUMPI DUP1 PUSH4 0xF09C5829 EQ PUSH2 0xF0 JUMPI DUP1 PUSH4 0xFE8B3BAA EQ PUSH2 0x127 JUMPI JUMPDEST PUSH1 0x0 DUP1 REVERT JUMPDEST PUSH2 0x81 PUSH1 0x4 DUP1 CALLDATASIZE SUB DUP2 ADD SWAP1 PUSH2 0x7C SWAP2 SWAP1 PUSH2 0x1589 JUMP JUMPDEST PUSH2 0x157 JUMP JUMPDEST STOP JUMPDEST PUSH2 0x9D PUSH1 0x4 DUP1 CALLDATASIZE SUB DUP2 ADD SWAP1 PUSH2 0x98 SWAP2 SWAP1 PUSH2 0x152F JUMP JUMPDEST PUSH2 0x604 JUMP JUMPDEST STOP JUMPDEST PUSH2 0xB9 PUSH1 0x4 DUP1 CALLDATASIZE SUB DUP2 ADD SWAP1 PUSH2 0xB4 SWAP2 SWAP1 PUSH2 0x152F JUMP JUMPDEST PUSH2 0xD84 JUMP JUMPDEST PUSH1 0x40 MLOAD PUSH2 0xCB SWAP7 SWAP6 SWAP5 SWAP4 SWAP3 SWAP2 SWAP1 PUSH2 0x1712 JUMP JUMPDEST PUSH1 0x40 MLOAD DUP1 SWAP2 SUB SWAP1 RETURN JUMPDEST PUSH2 0xEE PUSH1 0x4 DUP1 CALLDATASIZE SUB DUP2 ADD SWAP1 PUSH2 0xE9 SWAP2 SWAP1 PUSH2 0x152F JUMP JUMPDEST PUSH2 0xF7B JUMP JUMPDEST STOP JUMPDEST PUSH2 0x10A PUSH1 0x4 DUP1 CALLDATASIZE SUB DUP2 ADD SWAP1 PUSH2 0x105 SWAP2 SWAP1 PUSH2 0x152F JUMP JUMPDEST PUSH2 0x13E3 JUMP JUMPDEST PUSH1 0x40 MLOAD PUSH2 0x11E SWAP9 SWAP8 SWAP7 SWAP6 SWAP5 SWAP4 SWAP3 SWAP2 SWAP1 PUSH2 0x1858 JUMP JUMPDEST PUSH1 0x40 MLOAD DUP1 SWAP2 SUB SWAP1 RETURN JUMPDEST PUSH2 0x141 PUSH1 0x4 DUP1 CALLDATASIZE SUB DUP2 ADD SWAP1 PUSH2 0x13C SWAP2 SWAP1 PUSH2 0x152F JUMP JUMPDEST PUSH2 0x148B JUMP JUMPDEST PUSH1 0x40 MLOAD PUSH2 0x14E SWAP2 SWAP1 PUSH2 0x1773 JUMP JUMPDEST PUSH1 0x40 MLOAD DUP1 SWAP2 SUB SWAP1 RETURN JUMPDEST PUSH2 0x16B PUSH8 0xA2E19336B2F8EF66 PUSH1 0xC0 SHL PUSH2 0x14AB JUMP JUMPDEST PUSH2 0x17F PUSH8 0x4D64C5A75E8C51EC PUSH1 0xC0 SHL PUSH2 0x14AB JUMP JUMPDEST PUSH2 0x193 PUSH8 0x9133EC30CC8E21A1 PUSH1 0xC0 SHL PUSH2 0x14AB JUMP JUMPDEST PUSH1 0x0 DUP6 SWAP1 POP PUSH2 0x1AC PUSH8 0xED68028B772FD8F3 PUSH1 0xC0 SHL PUSH2 0x14AB JUMP JUMPDEST PUSH2 0x1C0 PUSH8 0xD13FE66BF2DBBA92 PUSH1 0xC0 SHL PUSH2 0x14AB JUMP JUMPDEST PUSH2 0x1D4 PUSH8 0xDE7E66AA9983375B PUSH1 0xC0 SHL PUSH2 0x14AB JUMP JUMPDEST DUP5 DUP2 PUSH20 0xFFFFFFFFFFFFFFFFFFFFFFFFFFFFFFFFFFFFFFFF AND PUSH4 0xDD62ED3E CALLER ADDRESS PUSH1 0x40 MLOAD DUP4 PUSH4 0xFFFFFFFF AND PUSH1 0xE0 SHL DUP2 MSTORE PUSH1 0x4 ADD PUSH2 0x210 SWAP3 SWAP2 SWAP1 PUSH2 0x1689 JUMP JUMPDEST PUSH1 0x20 PUSH1 0x40 MLOAD DUP1 DUP4 SUB DUP2 DUP7 DUP1 EXTCODESIZE ISZERO DUP1 ISZERO PUSH2 0x228 JUMPI PUSH1 0x0 DUP1 REVERT JUMPDEST POP GAS STATICCALL ISZERO DUP1 ISZERO PUSH2 0x23C JUMPI RETURNDATASIZE PUSH1 0x0 DUP1 RETURNDATACOPY RETURNDATASIZE PUSH1 0x0 REVERT JUMPDEST POP POP POP POP PUSH1 0x40 MLOAD RETURNDATASIZE PUSH1 0x1F NOT PUSH1 0x1F DUP3 ADD AND DUP3 ADD DUP1 PUSH1 0x40 MSTORE POP DUP2 ADD SWAP1 PUSH2 0x260 SWAP2 SWAP1 PUSH2 0x155C JUMP JUMPDEST LT ISZERO PUSH2 0x26B JUMPI PUSH1 0x0 DUP1 REVERT JUMPDEST PUSH2 0x27F PUSH8 0xA2E71AA7D81460A7 PUSH1 0xC0 SHL PUSH2 0x14AB JUMP JUMPDEST PUSH2 0x293 PUSH8 0x9B8F192690DB4E5D PUSH1 0xC0 SHL PUSH2 0x14AB JUMP JUMPDEST PUSH2 0x2A7 PUSH8 0xF63C115D6C6D8253 PUSH1 0xC0 SHL PUSH2 0x14AB JUMP JUMPDEST PUSH2 0x2BB PUSH8 0x4DB7651F937BD96A PUSH1 0xC0 SHL PUSH2 0x14AB JUMP JUMPDEST DUP1 PUSH20 0xFFFFFFFFFFFFFFFFFFFFFFFFFFFFFFFFFFFFFFFF AND PUSH4 0x23B872DD CALLER ADDRESS DUP9 PUSH1 0x40 MLOAD DUP5 PUSH4 0xFFFFFFFF AND PUSH1 0xE0 SHL DUP2 MSTORE PUSH1 0x4 ADD PUSH2 0x2F8 SWAP4 SWAP3 SWAP2 SWAP1 PUSH2 0x16B2 JUMP JUMPDEST PUSH1 0x20 PUSH1 0x40 MLOAD DUP1 DUP4 SUB DUP2 PUSH1 0x0 DUP8 DUP1 EXTCODESIZE ISZERO DUP1 ISZERO PUSH2 0x312 JUMPI PUSH1 0x0 DUP1 REVERT JUMPDEST POP GAS CALL ISZERO DUP1 ISZERO PUSH2 0x326 JUMPI RETURNDATASIZE PUSH1 0x0 DUP1 RETURNDATACOPY RETURNDATASIZE PUSH1 0x0 REVERT JUMPDEST POP POP POP POP PUSH1 0x40 MLOAD RETURNDATASIZE PUSH1 0x1F NOT PUSH1 0x1F DUP3 ADD AND DUP3 ADD DUP1 PUSH1 0x40 MSTORE POP DUP2 ADD SWAP1 PUSH2 0x34A SWAP2 SWAP1 PUSH2 0x1502 JUMP JUMPDEST PUSH2 0x353 JUMPI PUSH1 0x0 DUP1 REVERT JUMPDEST PUSH2 0x367 PUSH8 0x6882A967B7C026B PUSH1 0xC0 SHL PUSH2 0x14AB JUMP JUMPDEST PUSH2 0x37A PUSH7 0xDC0B384D5503A9 PUSH1 0xC0 SHL PUSH2 0x14AB JUMP JUMPDEST PUSH2 0x38E PUSH8 0x2FF719840C69BFB9 PUSH1 0xC0 SHL PUSH2 0x14AB JUMP JUMPDEST PUSH1 0x0 PUSH1 0x40 MLOAD DUP1 PUSH2 0x100 ADD PUSH1 0x40 MSTORE DUP1 DUP10 DUP2 MSTORE PUSH1 0x20 ADD TIMESTAMP DUP2 MSTORE PUSH1 0x20 ADD DUP5 DUP2 MSTORE PUSH1 0x20 ADD DUP9 PUSH20 0xFFFFFFFFFFFFFFFFFFFFFFFFFFFFFFFFFFFFFFFF AND DUP2 MSTORE PUSH1 0x20 ADD DUP7 PUSH20 0xFFFFFFFFFFFFFFFFFFFFFFFFFFFFFFFFFFFFFFFF AND DUP2 MSTORE PUSH1 0x20 ADD DUP8 DUP2 MSTORE PUSH1 0x20 ADD DUP6 DUP2 MSTORE PUSH1 0x20 ADD CALLER PUSH20 0xFFFFFFFFFFFFFFFFFFFFFFFFFFFFFFFFFFFFFFFF AND DUP2 MSTORE POP SWAP1 POP PUSH2 0x422 PUSH8 0x6C9C9724EA6CAF99 PUSH1 0xC0 SHL PUSH2 0x14AB JUMP JUMPDEST DUP1 PUSH1 0x0 DUP1 DUP11 DUP2 MSTORE PUSH1 0x20 ADD SWAP1 DUP2 MSTORE PUSH1 0x20 ADD PUSH1 0x0 KECCAK256 PUSH1 0x0 DUP3 ADD MLOAD DUP2 PUSH1 0x0 ADD SSTORE PUSH1 0x20 DUP3 ADD MLOAD DUP2 PUSH1 0x1 ADD SSTORE PUSH1 0x40 DUP3 ADD MLOAD DUP2 PUSH1 0x2 ADD SSTORE PUSH1 0x60 DUP3 ADD MLOAD DUP2 PUSH1 0x3 ADD PUSH1 0x0 PUSH2 0x100 EXP DUP2 SLOAD DUP2 PUSH20 0xFFFFFFFFFFFFFFFFFFFFFFFFFFFFFFFFFFFFFFFF MUL NOT AND SWAP1 DUP4 PUSH20 0xFFFFFFFFFFFFFFFFFFFFFFFFFFFFFFFFFFFFFFFF AND MUL OR SWAP1 SSTORE POP PUSH1 0x80 DUP3 ADD MLOAD DUP2 PUSH1 0x4 ADD PUSH1 0x0 PUSH2 0x100 EXP DUP2 SLOAD DUP2 PUSH20 0xFFFFFFFFFFFFFFFFFFFFFFFFFFFFFFFFFFFFFFFF MUL NOT AND SWAP1 DUP4 PUSH20 0xFFFFFFFFFFFFFFFFFFFFFFFFFFFFFFFFFFFFFFFF AND MUL OR SWAP1 SSTORE POP PUSH1 0xA0 DUP3 ADD MLOAD DUP2 PUSH1 0x5 ADD SSTORE PUSH1 0xC0 DUP3 ADD MLOAD DUP2 PUSH1 0x6 ADD SSTORE PUSH1 0xE0 DUP3 ADD MLOAD DUP2 PUSH1 0x7 ADD PUSH1 0x0 PUSH2 0x100 EXP DUP2 SLOAD DUP2 PUSH20 0xFFFFFFFFFFFFFFFFFFFFFFFFFFFFFFFFFFFFFFFF MUL NOT AND SWAP1 DUP4 PUSH20 0xFFFFFFFFFFFFFFFFFFFFFFFFFFFFFFFFFFFFFFFF AND MUL OR SWAP1 SSTORE POP SWAP1 POP POP PUSH2 0x553 PUSH8 0xA75F7E0E2C1435FD PUSH1 0xC0 SHL PUSH2 0x14AB JUMP JUMPDEST PUSH1 0x0 PUSH1 0x1 PUSH1 0x0 DUP11 DUP2 MSTORE PUSH1 0x20 ADD SWAP1 DUP2 MSTORE PUSH1 0x20 ADD PUSH1 0x0 KECCAK256 PUSH1 0x0 PUSH2 0x100 EXP DUP2 SLOAD DUP2 PUSH1 0xFF MUL NOT AND SWAP1 DUP4 PUSH1 0x2 DUP2 GT ISZERO PUSH2 0x58A JUMPI PUSH2 0x589 PUSH2 0x1954 JUMP JUMPDEST JUMPDEST MUL OR SWAP1 SSTORE POP PUSH2 0x5A3 PUSH8 0xB59C911B3C7D6082 PUSH1 0xC0 SHL PUSH2 0x14AB JUMP JUMPDEST PUSH2 0x5B7 PUSH8 0xFD001E1700D5F35D PUSH1 0xC0 SHL PUSH2 0x14AB JUMP JUMPDEST PUSH32 0x6585F302BAA66637B36C127A1A548986F058FB796CFEEC8E35BE8D6AD96A5FEE DUP9 DUP5 DUP10 DUP9 DUP11 DUP10 CALLER PUSH1 0x40 MLOAD PUSH2 0x5F2 SWAP8 SWAP7 SWAP6 SWAP5 SWAP4 SWAP3 SWAP2 SWAP1 PUSH2 0x17E9 JUMP JUMPDEST PUSH1 0x40 MLOAD DUP1 SWAP2 SUB SWAP1 LOG1 POP POP POP POP POP POP POP POP JUMP JUMPDEST PUSH2 0x618 PUSH8 0x91AC58CFBE56C319 PUSH1 0xC0 SHL PUSH2 0x14AB JUMP JUMPDEST DUP1 PUSH2 0x62D PUSH8 0x7367B3977E0707E3 PUSH1 0xC0 SHL PUSH2 0x14AB JUMP JUMPDEST PUSH2 0x641 PUSH8 0x274CEBA91A20D5B0 PUSH1 0xC0 SHL PUSH2 0x14AB JUMP JUMPDEST PUSH2 0x655 PUSH8 0xB1480DCF7FC73B98 PUSH1 0xC0 SHL PUSH2 0x14AB JUMP JUMPDEST PUSH2 0x669 PUSH8 0xC9698764014D104A PUSH1 0xC0 SHL PUSH2 0x14AB JUMP JUMPDEST PUSH1 0x0 PUSH1 0x2 DUP2 GT ISZERO PUSH2 0x67D JUMPI PUSH2 0x67C PUSH2 0x1954 JUMP JUMPDEST JUMPDEST PUSH1 0x1 PUSH1 0x0 DUP4 DUP2 MSTORE PUSH1 0x20 ADD SWAP1 DUP2 MSTORE PUSH1 0x20 ADD PUSH1 0x0 KECCAK256 PUSH1 0x0 SWAP1 SLOAD SWAP1 PUSH2 0x100 EXP SWAP1 DIV PUSH1 0xFF AND PUSH1 0x2 DUP2 GT ISZERO PUSH2 0x6B0 JUMPI PUSH2 0x6AF PUSH2 0x1954 JUMP JUMPDEST JUMPDEST EQ PUSH2 0x6F0 JUMPI PUSH1 0x40 MLOAD PUSH32 0x8C379A000000000000000000000000000000000000000000000000000000000 DUP2 MSTORE PUSH1 0x4 ADD PUSH2 0x6E7 SWAP1 PUSH2 0x17AE JUMP JUMPDEST PUSH1 0x40 MLOAD DUP1 SWAP2 SUB SWAP1 REVERT JUMPDEST PUSH2 0x704 PUSH8 0x9A11EF46655C5F95 PUSH1 0xC0 SHL PUSH2 0x14AB JUMP JUMPDEST PUSH2 0x718 PUSH8 0x7E158120276A3058 PUSH1 0xC0 SHL PUSH2 0x14AB JUMP JUMPDEST PUSH2 0x72C PUSH8 0x2EB75429EB5F7B28 PUSH1 0xC0 SHL PUSH2 0x14AB JUMP JUMPDEST PUSH2 0x740 PUSH8 0x9A5C43BB484A5A97 PUSH1 0xC0 SHL PUSH2 0x14AB JUMP JUMPDEST PUSH2 0x754 PUSH8 0xE37DC263EA22A92C PUSH1 0xC0 SHL PUSH2 0x14AB JUMP JUMPDEST PUSH2 0x768 PUSH8 0x999E6AA4F24C0C3 PUSH1 0xC0 SHL PUSH2 0x14AB JUMP JUMPDEST PUSH1 0x0 DUP1 PUSH1 0x0 DUP5 DUP2 MSTORE PUSH1 0x20 ADD SWAP1 DUP2 MSTORE PUSH1 0x20 ADD PUSH1 0x0 KECCAK256 PUSH1 0x40 MLOAD DUP1 PUSH2 0x100 ADD PUSH1 0x40 MSTORE SWAP1 DUP2 PUSH1 0x0 DUP3 ADD SLOAD DUP2 MSTORE PUSH1 0x20 ADD PUSH1 0x1 DUP3 ADD SLOAD DUP2 MSTORE PUSH1 0x20 ADD PUSH1 0x2 DUP3 ADD SLOAD DUP2 MSTORE PUSH1 0x20 ADD PUSH1 0x3 DUP3 ADD PUSH1 0x0 SWAP1 SLOAD SWAP1 PUSH2 0x100 EXP SWAP1 DIV PUSH20 0xFFFFFFFFFFFFFFFFFFFFFFFFFFFFFFFFFFFFFFFF AND PUSH20 0xFFFFFFFFFFFFFFFFFFFFFFFFFFFFFFFFFFFFFFFF AND PUSH20 0xFFFFFFFFFFFFFFFFFFFFFFFFFFFFFFFFFFFFFFFF AND DUP2 MSTORE PUSH1 0x20 ADD PUSH1 0x4 DUP3 ADD PUSH1 0x0 SWAP1 SLOAD SWAP1 PUSH2 0x100 EXP SWAP1 DIV PUSH20 0xFFFFFFFFFFFFFFFFFFFFFFFFFFFFFFFFFFFFFFFF AND PUSH20 0xFFFFFFFFFFFFFFFFFFFFFFFFFFFFFFFFFFFFFFFF AND PUSH20 0xFFFFFFFFFFFFFFFFFFFFFFFFFFFFFFFFFFFFFFFF AND DUP2 MSTORE PUSH1 0x20 ADD PUSH1 0x5 DUP3 ADD SLOAD DUP2 MSTORE PUSH1 0x20 ADD PUSH1 0x6 DUP3 ADD SLOAD DUP2 MSTORE PUSH1 0x20 ADD PUSH1 0x7 DUP3 ADD PUSH1 0x0 SWAP1 SLOAD SWAP1 PUSH2 0x100 EXP SWAP1 DIV PUSH20 0xFFFFFFFFFFFFFFFFFFFFFFFFFFFFFFFFFFFFFFFF AND PUSH20 0xFFFFFFFFFFFFFFFFFFFFFFFFFFFFFFFFFFFFFFFF AND PUSH20 0xFFFFFFFFFFFFFFFFFFFFFFFFFFFFFFFFFFFFFFFF AND DUP2 MSTORE POP POP SWAP1 POP PUSH2 0x8D2 PUSH8 0x5ACD4B31D4A0612D PUSH1 0xC0 SHL PUSH2 0x14AB JUMP JUMPDEST PUSH1 0x1 DUP1 PUSH1 0x0 DUP6 DUP2 MSTORE PUSH1 0x20 ADD SWAP1 DUP2 MSTORE PUSH1 0x20 ADD PUSH1 0x0 KECCAK256 PUSH1 0x0 PUSH2 0x100 EXP DUP2 SLOAD DUP2 PUSH1 0xFF MUL NOT AND SWAP1 DUP4 PUSH1 0x2 DUP2 GT ISZERO PUSH2 0x908 JUMPI PUSH2 0x907 PUSH2 0x1954 JUMP JUMPDEST JUMPDEST MUL OR SWAP1 SSTORE POP PUSH2 0x921 PUSH8 0xFE133F4E59672430 PUSH1 0xC0 SHL PUSH2 0x14AB JUMP JUMPDEST PUSH2 0x935 PUSH8 0xD97969B3982A0945 PUSH1 0xC0 SHL PUSH2 0x14AB JUMP JUMPDEST PUSH1 0x0 DUP2 PUSH1 0x60 ADD MLOAD SWAP1 POP PUSH2 0x952 PUSH8 0x950AEBF8B4F7D25F PUSH1 0xC0 SHL PUSH2 0x14AB JUMP JUMPDEST PUSH2 0x966 PUSH8 0xADC1EE859BC1DBB5 PUSH1 0xC0 SHL PUSH2 0x14AB JUMP JUMPDEST PUSH1 0x0 DUP3 PUSH1 0x80 ADD MLOAD SWAP1 POP PUSH2 0x983 PUSH8 0x3748D300B339CDC4 PUSH1 0xC0 SHL PUSH2 0x14AB JUMP JUMPDEST PUSH2 0x997 PUSH8 0x3FF0C9F8F6C0B7DF PUSH1 0xC0 SHL PUSH2 0x14AB JUMP JUMPDEST PUSH2 0x9AB PUSH8 0xEB0DE9930ABC54B8 PUSH1 0xC0 SHL PUSH2 0x14AB JUMP JUMPDEST DUP1 PUSH20 0xFFFFFFFFFFFFFFFFFFFFFFFFFFFFFFFFFFFFFFFF AND PUSH4 0xDD62ED3E CALLER ADDRESS PUSH1 0x40 MLOAD DUP4 PUSH4 0xFFFFFFFF AND PUSH1 0xE0 SHL DUP2 MSTORE PUSH1 0x4 ADD PUSH2 0x9E6 SWAP3 SWAP2 SWAP1 PUSH2 0x1689 JUMP JUMPDEST PUSH1 0x20 PUSH1 0x40 MLOAD DUP1 DUP4 SUB DUP2 DUP7 DUP1 EXTCODESIZE ISZERO DUP1 ISZERO PUSH2 0x9FE JUMPI PUSH1 0x0 DUP1 REVERT JUMPDEST POP GAS STATICCALL ISZERO DUP1 ISZERO PUSH2 0xA12 JUMPI RETURNDATASIZE PUSH1 0x0 DUP1 RETURNDATACOPY RETURNDATASIZE PUSH1 0x0 REVERT JUMPDEST POP POP POP POP PUSH1 0x40 MLOAD RETURNDATASIZE PUSH1 0x1F NOT PUSH1 0x1F DUP3 ADD AND DUP3 ADD DUP1 PUSH1 0x40 MSTORE POP DUP2 ADD SWAP1 PUSH2 0xA36 SWAP2 SWAP1 PUSH2 0x155C JUMP JUMPDEST DUP4 PUSH1 0xC0 ADD MLOAD GT ISZERO PUSH2 0xA46 JUMPI PUSH1 0x0 DUP1 REVERT JUMPDEST PUSH2 0xA5A PUSH8 0xE9702762C9F93234 PUSH1 0xC0 SHL PUSH2 0x14AB JUMP JUMPDEST PUSH2 0xA6E PUSH8 0xDD1AC2D687CCCB77 PUSH1 0xC0 SHL PUSH2 0x14AB JUMP JUMPDEST PUSH2 0xA82 PUSH8 0xA5292D94B09A854E PUSH1 0xC0 SHL PUSH2 0x14AB JUMP JUMPDEST PUSH2 0xA96 PUSH8 0xC5EFEAD5B7A1D728 PUSH1 0xC0 SHL PUSH2 0x14AB JUMP JUMPDEST DUP1 PUSH20 0xFFFFFFFFFFFFFFFFFFFFFFFFFFFFFFFFFFFFFFFF AND PUSH4 0x23B872DD CALLER ADDRESS DUP7 PUSH1 0xC0 ADD MLOAD PUSH1 0x40 MLOAD DUP5 PUSH4 0xFFFFFFFF AND PUSH1 0xE0 SHL DUP2 MSTORE PUSH1 0x4 ADD PUSH2 0xAD7 SWAP4 SWAP3 SWAP2 SWAP1 PUSH2 0x16B2 JUMP JUMPDEST PUSH1 0x20 PUSH1 0x40 MLOAD DUP1 DUP4 SUB DUP2 PUSH1 0x0 DUP8 DUP1 EXTCODESIZE ISZERO DUP1 ISZERO PUSH2 0xAF1 JUMPI PUSH1 0x0 DUP1 REVERT JUMPDEST POP GAS CALL ISZERO DUP1 ISZERO PUSH2 0xB05 JUMPI RETURNDATASIZE PUSH1 0x0 DUP1 RETURNDATACOPY RETURNDATASIZE PUSH1 0x0 REVERT JUMPDEST POP POP POP POP PUSH1 0x40 MLOAD RETURNDATASIZE PUSH1 0x1F NOT PUSH1 0x1F DUP3 ADD AND DUP3 ADD DUP1 PUSH1 0x40 MSTORE POP DUP2 ADD SWAP1 PUSH2 0xB29 SWAP2 SWAP1 PUSH2 0x1502 JUMP JUMPDEST PUSH2 0xB32 JUMPI PUSH1 0x0 DUP1 REVERT JUMPDEST PUSH2 0xB46 PUSH8 0x3B8590B1900F6126 PUSH1 0xC0 SHL PUSH2 0x14AB JUMP JUMPDEST PUSH2 0xB5A PUSH8 0x4163E74403F9D8E9 PUSH1 0xC0 SHL PUSH2 0x14AB JUMP JUMPDEST PUSH2 0xB6E PUSH8 0xD353254DE76FEF3A PUSH1 0xC0 SHL PUSH2 0x14AB JUMP JUMPDEST PUSH2 0xB82 PUSH8 0xC9F94C938FDA908A PUSH1 0xC0 SHL PUSH2 0x14AB JUMP JUMPDEST DUP2 PUSH20 0xFFFFFFFFFFFFFFFFFFFFFFFFFFFFFFFFFFFFFFFF AND PUSH4 0xA9059CBB CALLER DUP6 PUSH1 0xA0 ADD MLOAD PUSH1 0x40 MLOAD DUP4 PUSH4 0xFFFFFFFF AND PUSH1 0xE0 SHL DUP2 MSTORE PUSH1 0x4 ADD PUSH2 0xBC1 SWAP3 SWAP2 SWAP1 PUSH2 0x16E9 JUMP JUMPDEST PUSH1 0x20 PUSH1 0x40 MLOAD DUP1 DUP4 SUB DUP2 PUSH1 0x0 DUP8 DUP1 EXTCODESIZE ISZERO DUP1 ISZERO PUSH2 0xBDB JUMPI PUSH1 0x0 DUP1 REVERT JUMPDEST POP GAS CALL ISZERO DUP1 ISZERO PUSH2 0xBEF JUMPI RETURNDATASIZE PUSH1 0x0 DUP1 RETURNDATACOPY RETURNDATASIZE PUSH1 0x0 REVERT JUMPDEST POP POP POP POP PUSH1 0x40 MLOAD RETURNDATASIZE PUSH1 0x1F NOT PUSH1 0x1F DUP3 ADD AND DUP3 ADD DUP1 PUSH1 0x40 MSTORE POP DUP2 ADD SWAP1 PUSH2 0xC13 SWAP2 SWAP1 PUSH2 0x1502 JUMP JUMPDEST PUSH2 0xC1C JUMPI PUSH1 0x0 DUP1 REVERT JUMPDEST PUSH2 0xC30 PUSH8 0x3DEFAC7DD8813A64 PUSH1 0xC0 SHL PUSH2 0x14AB JUMP JUMPDEST PUSH2 0xC44 PUSH8 0xCD550FD6542E936C PUSH1 0xC0 SHL PUSH2 0x14AB JUMP JUMPDEST PUSH2 0xC58 PUSH8 0x2B5352995D5DEBB3 PUSH1 0xC0 SHL PUSH2 0x14AB JUMP JUMPDEST PUSH2 0xC6C PUSH8 0x20CCA1367117D3DE PUSH1 0xC0 SHL PUSH2 0x14AB JUMP JUMPDEST DUP1 PUSH20 0xFFFFFFFFFFFFFFFFFFFFFFFFFFFFFFFFFFFFFFFF AND PUSH4 0xA9059CBB DUP5 PUSH1 0xE0 ADD MLOAD DUP6 PUSH1 0xC0 ADD MLOAD PUSH1 0x40 MLOAD DUP4 PUSH4 0xFFFFFFFF AND PUSH1 0xE0 SHL DUP2 MSTORE PUSH1 0x4 ADD PUSH2 0xCAF SWAP3 SWAP2 SWAP1 PUSH2 0x16E9 JUMP JUMPDEST PUSH1 0x20 PUSH1 0x40 MLOAD DUP1 DUP4 SUB DUP2 PUSH1 0x0 DUP8 DUP1 EXTCODESIZE ISZERO DUP1 ISZERO PUSH2 0xCC9 JUMPI PUSH1 0x0 DUP1 REVERT JUMPDEST POP GAS CALL ISZERO DUP1 ISZERO PUSH2 0xCDD JUMPI RETURNDATASIZE PUSH1 0x0 DUP1 RETURNDATACOPY RETURNDATASIZE PUSH1 0x0 REVERT JUMPDEST POP POP POP POP PUSH1 0x40 MLOAD RETURNDATASIZE PUSH1 0x1F NOT PUSH1 0x1F DUP3 ADD AND DUP3 ADD DUP1 PUSH1 0x40 MSTORE POP DUP2 ADD SWAP1 PUSH2 0xD01 SWAP2 SWAP1 PUSH2 0x1502 JUMP JUMPDEST PUSH2 0xD0A JUMPI PUSH1 0x0 DUP1 REVERT JUMPDEST PUSH2 0xD1E PUSH8 0x2DFC77AB1C697A1F PUSH1 0xC0 SHL PUSH2 0x14AB JUMP JUMPDEST PUSH2 0xD32 PUSH8 0x2CC73CB5A6B5E152 PUSH1 0xC0 SHL PUSH2 0x14AB JUMP JUMPDEST PUSH2 0xD46 PUSH8 0x96FB57F93B42DDBD PUSH1 0xC0 SHL PUSH2 0x14AB JUMP JUMPDEST PUSH32 0xBF67515A38EE520223D32C1266D52101C30D936ED1F3E436C8CAEB0A43CB06BF DUP6 PUSH1 0x40 MLOAD PUSH2 0xD75 SWAP2 SWAP1 PUSH2 0x17CE JUMP JUMPDEST PUSH1 0x40 MLOAD DUP1 SWAP2 SUB SWAP1 LOG1 POP POP POP POP POP JUMP JUMPDEST PUSH1 0x0 DUP1 PUSH1 0x0 DUP1 PUSH1 0x0 DUP1 PUSH2 0xDA1 PUSH8 0xA1A9946285ABD40 PUSH1 0xC0 SHL PUSH2 0x14AB JUMP JUMPDEST PUSH2 0xDB5 PUSH8 0x3BF21EB2556655E0 PUSH1 0xC0 SHL PUSH2 0x14AB JUMP JUMPDEST PUSH2 0xDC9 PUSH8 0x9CA6F1BC392B637C PUSH1 0xC0 SHL PUSH2 0x14AB JUMP JUMPDEST PUSH1 0x0 DUP1 PUSH1 0x0 DUP10 DUP2 MSTORE PUSH1 0x20 ADD SWAP1 DUP2 MSTORE PUSH1 0x20 ADD PUSH1 0x0 KECCAK256 PUSH1 0x40 MLOAD DUP1 PUSH2 0x100 ADD PUSH1 0x40 MSTORE SWAP1 DUP2 PUSH1 0x0 DUP3 ADD SLOAD DUP2 MSTORE PUSH1 0x20 ADD PUSH1 0x1 DUP3 ADD SLOAD DUP2 MSTORE PUSH1 0x20 ADD PUSH1 0x2 DUP3 ADD SLOAD DUP2 MSTORE PUSH1 0x20 ADD PUSH1 0x3 DUP3 ADD PUSH1 0x0 SWAP1 SLOAD SWAP1 PUSH2 0x100 EXP SWAP1 DIV PUSH20 0xFFFFFFFFFFFFFFFFFFFFFFFFFFFFFFFFFFFFFFFF AND PUSH20 0xFFFFFFFFFFFFFFFFFFFFFFFFFFFFFFFFFFFFFFFF AND PUSH20 0xFFFFFFFFFFFFFFFFFFFFFFFFFFFFFFFFFFFFFFFF AND DUP2 MSTORE PUSH1 0x20 ADD PUSH1 0x4 DUP3 ADD PUSH1 0x0 SWAP1 SLOAD SWAP1 PUSH2 0x100 EXP SWAP1 DIV PUSH20 0xFFFFFFFFFFFFFFFFFFFFFFFFFFFFFFFFFFFFFFFF AND PUSH20 0xFFFFFFFFFFFFFFFFFFFFFFFFFFFFFFFFFFFFFFFF AND PUSH20 0xFFFFFFFFFFFFFFFFFFFFFFFFFFFFFFFFFFFFFFFF AND DUP2 MSTORE PUSH1 0x20 ADD PUSH1 0x5 DUP3 ADD SLOAD DUP2 MSTORE PUSH1 0x20 ADD PUSH1 0x6 DUP3 ADD SLOAD DUP2 MSTORE PUSH1 0x20 ADD PUSH1 0x7 DUP3 ADD PUSH1 0x0 SWAP1 SLOAD SWAP1 PUSH2 0x100 EXP SWAP1 DIV PUSH20 0xFFFFFFFFFFFFFFFFFFFFFFFFFFFFFFFFFFFFFFFF AND PUSH20 0xFFFFFFFFFFFFFFFFFFFFFFFFFFFFFFFFFFFFFFFF AND PUSH20 0xFFFFFFFFFFFFFFFFFFFFFFFFFFFFFFFFFFFFFFFF AND DUP2 MSTORE POP POP SWAP1 POP PUSH2 0xF33 PUSH8 0x4D269DFF6EDE2DCF PUSH1 0xC0 SHL PUSH2 0x14AB JUMP JUMPDEST PUSH2 0xF47 PUSH8 0xA11294BF48FEFC42 PUSH1 0xC0 SHL PUSH2 0x14AB JUMP JUMPDEST DUP1 PUSH1 0x60 ADD MLOAD DUP2 PUSH1 0xA0 ADD MLOAD DUP3 PUSH1 0x80 ADD MLOAD DUP4 PUSH1 0xC0 ADD MLOAD DUP5 PUSH1 0x40 ADD MLOAD DUP6 PUSH1 0xE0 ADD MLOAD SWAP7 POP SWAP7 POP SWAP7 POP SWAP7 POP SWAP7 POP SWAP7 POP POP SWAP2 SWAP4 SWAP6 POP SWAP2 SWAP4 SWAP6 JUMP JUMPDEST PUSH2 0xF8F PUSH8 0x7114BC2374A226DE PUSH1 0xC0 SHL PUSH2 0x14AB JUMP JUMPDEST DUP1 PUSH2 0xFA4 PUSH8 0x7367B3977E0707E3 PUSH1 0xC0 SHL PUSH2 0x14AB JUMP JUMPDEST PUSH2 0xFB8 PUSH8 0x274CEBA91A20D5B0 PUSH1 0xC0 SHL PUSH2 0x14AB JUMP JUMPDEST PUSH2 0xFCC PUSH8 0xB1480DCF7FC73B98 PUSH1 0xC0 SHL PUSH2 0x14AB JUMP JUMPDEST PUSH2 0xFE0 PUSH8 0xC9698764014D104A PUSH1 0xC0 SHL PUSH2 0x14AB JUMP JUMPDEST PUSH1 0x0 PUSH1 0x2 DUP2 GT ISZERO PUSH2 0xFF4 JUMPI PUSH2 0xFF3 PUSH2 0x1954 JUMP JUMPDEST JUMPDEST PUSH1 0x1 PUSH1 0x0 DUP4 DUP2 MSTORE PUSH1 0x20 ADD SWAP1 DUP2 MSTORE PUSH1 0x20 ADD PUSH1 0x0 KECCAK256 PUSH1 0x0 SWAP1 SLOAD SWAP1 PUSH2 0x100 EXP SWAP1 DIV PUSH1 0xFF AND PUSH1 0x2 DUP2 GT ISZERO PUSH2 0x1027 JUMPI PUSH2 0x1026 PUSH2 0x1954 JUMP JUMPDEST JUMPDEST EQ PUSH2 0x1067 JUMPI PUSH1 0x40 MLOAD PUSH32 0x8C379A000000000000000000000000000000000000000000000000000000000 DUP2 MSTORE PUSH1 0x4 ADD PUSH2 0x105E SWAP1 PUSH2 0x17AE JUMP JUMPDEST PUSH1 0x40 MLOAD DUP1 SWAP2 SUB SWAP1 REVERT JUMPDEST PUSH2 0x107B PUSH8 0x9A11EF46655C5F95 PUSH1 0xC0 SHL PUSH2 0x14AB JUMP JUMPDEST PUSH2 0x108F PUSH8 0x7E158120276A3058 PUSH1 0xC0 SHL PUSH2 0x14AB JUMP JUMPDEST PUSH2 0x10A3 PUSH8 0xEC9C224EF7515E20 PUSH1 0xC0 SHL PUSH2 0x14AB JUMP JUMPDEST PUSH2 0x10B7 PUSH8 0x1D184A5347427227 PUSH1 0xC0 SHL PUSH2 0x14AB JUMP JUMPDEST DUP2 PUSH2 0x10CC PUSH8 0xEB727340FDF0F0C5 PUSH1 0xC0 SHL PUSH2 0x14AB JUMP JUMPDEST PUSH2 0x10E0 PUSH8 0xF01C9C743878E85E PUSH1 0xC0 SHL PUSH2 0x14AB JUMP JUMPDEST PUSH2 0x10F4 PUSH8 0xD823672BE30F10F2 PUSH1 0xC0 SHL PUSH2 0x14AB JUMP JUMPDEST PUSH2 0x1108 PUSH8 0x46D24B33811BB348 PUSH1 0xC0 SHL PUSH2 0x14AB JUMP JUMPDEST PUSH1 0x0 DUP1 DUP3 DUP2 MSTORE PUSH1 0x20 ADD SWAP1 DUP2 MSTORE PUSH1 0x20 ADD PUSH1 0x0 KECCAK256 PUSH1 0x7 ADD PUSH1 0x0 SWAP1 SLOAD SWAP1 PUSH2 0x100 EXP SWAP1 DIV PUSH20 0xFFFFFFFFFFFFFFFFFFFFFFFFFFFFFFFFFFFFFFFF AND PUSH20 0xFFFFFFFFFFFFFFFFFFFFFFFFFFFFFFFFFFFFFFFF AND CALLER PUSH20 0xFFFFFFFFFFFFFFFFFFFFFFFFFFFFFFFFFFFFFFFF AND EQ PUSH2 0x11AB JUMPI PUSH1 0x40 MLOAD PUSH32 0x8C379A000000000000000000000000000000000000000000000000000000000 DUP2 MSTORE PUSH1 0x4 ADD PUSH2 0x11A2 SWAP1 PUSH2 0x178E JUMP JUMPDEST PUSH1 0x40 MLOAD DUP1 SWAP2 SUB SWAP1 REVERT JUMPDEST PUSH2 0x11BF PUSH8 0x82E3872F7E2B462A PUSH1 0xC0 SHL PUSH2 0x14AB JUMP JUMPDEST PUSH2 0x11D3 PUSH8 0x308C029139653C64 PUSH1 0xC0 SHL PUSH2 0x14AB JUMP JUMPDEST PUSH2 0x11E7 PUSH8 0x85355ED1ADD953A2 PUSH1 0xC0 SHL PUSH2 0x14AB JUMP JUMPDEST PUSH2 0x11FB PUSH8 0x98B11B2D7A85DE45 PUSH1 0xC0 SHL PUSH2 0x14AB JUMP JUMPDEST PUSH2 0x120F PUSH8 0x7A547703A9F0E3D0 PUSH1 0xC0 SHL PUSH2 0x14AB JUMP JUMPDEST PUSH1 0x2 PUSH1 0x1 PUSH1 0x0 DUP6 DUP2 MSTORE PUSH1 0x20 ADD SWAP1 DUP2 MSTORE PUSH1 0x20 ADD PUSH1 0x0 KECCAK256 PUSH1 0x0 PUSH2 0x100 EXP DUP2 SLOAD DUP2 PUSH1 0xFF MUL NOT AND SWAP1 DUP4 PUSH1 0x2 DUP2 GT ISZERO PUSH2 0x1246 JUMPI PUSH2 0x1245 PUSH2 0x1954 JUMP JUMPDEST JUMPDEST MUL OR SWAP1 SSTORE POP PUSH2 0x125F PUSH8 0x9D625433195FF952 PUSH1 0xC0 SHL PUSH2 0x14AB JUMP JUMPDEST PUSH2 0x1273 PUSH8 0x2BD844FC18B18CC5 PUSH1 0xC0 SHL PUSH2 0x14AB JUMP JUMPDEST PUSH1 0x0 DUP1 PUSH1 0x0 DUP6 DUP2 MSTORE PUSH1 0x20 ADD SWAP1 DUP2 MSTORE PUSH1 0x20 ADD PUSH1 0x0 KECCAK256 PUSH1 0x3 ADD PUSH1 0x0 SWAP1 SLOAD SWAP1 PUSH2 0x100 EXP SWAP1 DIV PUSH20 0xFFFFFFFFFFFFFFFFFFFFFFFFFFFFFFFFFFFFFFFF AND SWAP1 POP PUSH2 0x12C1 PUSH8 0xE55713D7B0DABC5F PUSH1 0xC0 SHL PUSH2 0x14AB JUMP JUMPDEST PUSH2 0x12D5 PUSH8 0x79995484BA81B788 PUSH1 0xC0 SHL PUSH2 0x14AB JUMP JUMPDEST PUSH2 0x12E9 PUSH8 0x6FA80D3F1A04A352 PUSH1 0xC0 SHL PUSH2 0x14AB JUMP JUMPDEST DUP1 PUSH20 0xFFFFFFFFFFFFFFFFFFFFFFFFFFFFFFFFFFFFFFFF AND PUSH4 0xA9059CBB PUSH1 0x0 DUP1 DUP8 DUP2 MSTORE PUSH1 0x20 ADD SWAP1 DUP2 MSTORE PUSH1 0x20 ADD PUSH1 0x0 KECCAK256 PUSH1 0x7 ADD PUSH1 0x0 SWAP1 SLOAD SWAP1 PUSH2 0x100 EXP SWAP1 DIV PUSH20 0xFFFFFFFFFFFFFFFFFFFFFFFFFFFFFFFFFFFFFFFF AND PUSH1 0x0 DUP1 DUP9 DUP2 MSTORE PUSH1 0x20 ADD SWAP1 DUP2 MSTORE PUSH1 0x20 ADD PUSH1 0x0 KECCAK256 PUSH1 0x5 ADD SLOAD PUSH1 0x40 MLOAD DUP4 PUSH4 0xFFFFFFFF AND PUSH1 0xE0 SHL DUP2 MSTORE PUSH1 0x4 ADD PUSH2 0x136E SWAP3 SWAP2 SWAP1 PUSH2 0x16E9 JUMP JUMPDEST PUSH1 0x20 PUSH1 0x40 MLOAD DUP1 DUP4 SUB DUP2 PUSH1 0x0 DUP8 DUP1 EXTCODESIZE ISZERO DUP1 ISZERO PUSH2 0x1388 JUMPI PUSH1 0x0 DUP1 REVERT JUMPDEST POP GAS CALL ISZERO DUP1 ISZERO PUSH2 0x139C JUMPI RETURNDATASIZE PUSH1 0x0 DUP1 RETURNDATACOPY RETURNDATASIZE PUSH1 0x0 REVERT JUMPDEST POP POP POP POP PUSH1 0x40 MLOAD RETURNDATASIZE PUSH1 0x1F NOT PUSH1 0x1F DUP3 ADD AND DUP3 ADD DUP1 PUSH1 0x40 MSTORE POP DUP2 ADD SWAP1 PUSH2 0x13C0 SWAP2 SWAP1 PUSH2 0x1502 JUMP JUMPDEST PUSH2 0x13C9 JUMPI PUSH1 0x0 DUP1 REVERT JUMPDEST PUSH2 0x13DD PUSH8 0x64126DF52A3FBC6D PUSH1 0xC0 SHL PUSH2 0x14AB JUMP JUMPDEST POP POP POP POP JUMP JUMPDEST PUSH1 0x0 PUSH1 0x20 MSTORE DUP1 PUSH1 0x0 MSTORE PUSH1 0x40 PUSH1 0x0 KECCAK256 PUSH1 0x0 SWAP2 POP SWAP1 POP DUP1 PUSH1 0x0 ADD SLOAD SWAP1 DUP1 PUSH1 0x1 ADD SLOAD SWAP1 DUP1 PUSH1 0x2 ADD SLOAD SWAP1 DUP1 PUSH1 0x3 ADD PUSH1 0x0 SWAP1 SLOAD SWAP1 PUSH2 0x100 EXP SWAP1 DIV PUSH20 0xFFFFFFFFFFFFFFFFFFFFFFFFFFFFFFFFFFFFFFFF AND SWAP1 DUP1 PUSH1 0x4 ADD PUSH1 0x0 SWAP1 SLOAD SWAP1 PUSH2 0x100 EXP SWAP1 DIV PUSH20 0xFFFFFFFFFFFFFFFFFFFFFFFFFFFFFFFFFFFFFFFF AND SWAP1 DUP1 PUSH1 0x5 ADD SLOAD SWAP1 DUP1 PUSH1 0x6 ADD SLOAD SWAP1 DUP1 PUSH1 0x7 ADD PUSH1 0x0 SWAP1 SLOAD SWAP1 PUSH2 0x100 EXP SWAP1 DIV PUSH20 0xFFFFFFFFFFFFFFFFFFFFFFFFFFFFFFFFFFFFFFFF AND SWAP1 POP DUP9 JUMP JUMPDEST PUSH1 0x1 PUSH1 0x20 MSTORE DUP1 PUSH1 0x0 MSTORE PUSH1 0x40 PUSH1 0x0 KECCAK256 PUSH1 0x0 SWAP2 POP SLOAD SWAP1 PUSH2 0x100 EXP SWAP1 DIV PUSH1 0xFF AND DUP2 JUMP JUMPDEST POP JUMP JUMPDEST PUSH1 0x0 DUP2 CALLDATALOAD SWAP1 POP PUSH2 0x14BD DUP2 PUSH2 0x1A14 JUMP JUMPDEST SWAP3 SWAP2 POP POP JUMP JUMPDEST PUSH1 0x0 DUP2 MLOAD SWAP1 POP PUSH2 0x14D2 DUP2 PUSH2 0x1A2B JUMP JUMPDEST SWAP3 SWAP2 POP POP JUMP JUMPDEST PUSH1 0x0 DUP2 CALLDATALOAD SWAP1 POP PUSH2 0x14E7 DUP2 PUSH2 0x1A42 JUMP JUMPDEST SWAP3 SWAP2 POP POP JUMP JUMPDEST PUSH1 0x0 DUP2 MLOAD SWAP1 POP PUSH2 0x14FC DUP2 PUSH2 0x1A42 JUMP JUMPDEST SWAP3 SWAP2 POP POP JUMP JUMPDEST PUSH1 0x0 PUSH1 0x20 DUP3 DUP5 SUB SLT ISZERO PUSH2 0x1518 JUMPI PUSH2 0x1517 PUSH2 0x1983 JUMP JUMPDEST JUMPDEST PUSH1 0x0 PUSH2 0x1526 DUP5 DUP3 DUP6 ADD PUSH2 0x14C3 JUMP JUMPDEST SWAP2 POP POP SWAP3 SWAP2 POP POP JUMP JUMPDEST PUSH1 0x0 PUSH1 0x20 DUP3 DUP5 SUB SLT ISZERO PUSH2 0x1545 JUMPI PUSH2 0x1544 PUSH2 0x1983 JUMP JUMPDEST JUMPDEST PUSH1 0x0 PUSH2 0x1553 DUP5 DUP3 DUP6 ADD PUSH2 0x14D8 JUMP JUMPDEST SWAP2 POP POP SWAP3 SWAP2 POP POP JUMP JUMPDEST PUSH1 0x0 PUSH1 0x20 DUP3 DUP5 SUB SLT ISZERO PUSH2 0x1572 JUMPI PUSH2 0x1571 PUSH2 0x1983 JUMP JUMPDEST JUMPDEST PUSH1 0x0 PUSH2 0x1580 DUP5 DUP3 DUP6 ADD PUSH2 0x14ED JUMP JUMPDEST SWAP2 POP POP SWAP3 SWAP2 POP POP JUMP JUMPDEST PUSH1 0x0 DUP1 PUSH1 0x0 DUP1 PUSH1 0x0 DUP1 PUSH1 0xC0 DUP8 DUP10 SUB SLT ISZERO PUSH2 0x15A6 JUMPI PUSH2 0x15A5 PUSH2 0x1983 JUMP JUMPDEST JUMPDEST PUSH1 0x0 PUSH2 0x15B4 DUP10 DUP3 DUP11 ADD PUSH2 0x14D8 JUMP JUMPDEST SWAP7 POP POP PUSH1 0x20 PUSH2 0x15C5 DUP10 DUP3 DUP11 ADD PUSH2 0x14AE JUMP JUMPDEST SWAP6 POP POP PUSH1 0x40 PUSH2 0x15D6 DUP10 DUP3 DUP11 ADD PUSH2 0x14D8 JUMP JUMPDEST SWAP5 POP POP PUSH1 0x60 PUSH2 0x15E7 DUP10 DUP3 DUP11 ADD PUSH2 0x14AE JUMP JUMPDEST SWAP4 POP POP PUSH1 0x80 PUSH2 0x15F8 DUP10 DUP3 DUP11 ADD PUSH2 0x14D8 JUMP JUMPDEST SWAP3 POP POP PUSH1 0xA0 PUSH2 0x1609 DUP10 DUP3 DUP11 ADD PUSH2 0x14D8 JUMP JUMPDEST SWAP2 POP POP SWAP3 SWAP6 POP SWAP3 SWAP6 POP SWAP3 SWAP6 JUMP JUMPDEST PUSH2 0x161F DUP2 PUSH2 0x18E7 JUMP JUMPDEST DUP3 MSTORE POP POP JUMP JUMPDEST PUSH2 0x162E DUP2 PUSH2 0x1942 JUMP JUMPDEST DUP3 MSTORE POP POP JUMP JUMPDEST PUSH1 0x0 PUSH2 0x1641 PUSH1 0x2B DUP4 PUSH2 0x18D6 JUMP JUMPDEST SWAP2 POP PUSH2 0x164C DUP3 PUSH2 0x1988 JUMP JUMPDEST PUSH1 0x40 DUP3 ADD SWAP1 POP SWAP2 SWAP1 POP JUMP JUMPDEST PUSH1 0x0 PUSH2 0x1664 PUSH1 0x16 DUP4 PUSH2 0x18D6 JUMP JUMPDEST SWAP2 POP PUSH2 0x166F DUP3 PUSH2 0x19D7 JUMP JUMPDEST PUSH1 0x20 DUP3 ADD SWAP1 POP SWAP2 SWAP1 POP JUMP JUMPDEST PUSH2 0x1683 DUP2 PUSH2 0x1938 JUMP JUMPDEST DUP3 MSTORE POP POP JUMP JUMPDEST PUSH1 0x0 PUSH1 0x40 DUP3 ADD SWAP1 POP PUSH2 0x169E PUSH1 0x0 DUP4 ADD DUP6 PUSH2 0x1616 JUMP JUMPDEST PUSH2 0x16AB PUSH1 0x20 DUP4 ADD DUP5 PUSH2 0x1616 JUMP JUMPDEST SWAP4 SWAP3 POP POP POP JUMP JUMPDEST PUSH1 0x0 PUSH1 0x60 DUP3 ADD SWAP1 POP PUSH2 0x16C7 PUSH1 0x0 DUP4 ADD DUP7 PUSH2 0x1616 JUMP JUMPDEST PUSH2 0x16D4 PUSH1 0x20 DUP4 ADD DUP6 PUSH2 0x1616 JUMP JUMPDEST PUSH2 0x16E1 PUSH1 0x40 DUP4 ADD DUP5 PUSH2 0x167A JUMP JUMPDEST SWAP5 SWAP4 POP POP POP POP JUMP JUMPDEST PUSH1 0x0 PUSH1 0x40 DUP3 ADD SWAP1 POP PUSH2 0x16FE PUSH1 0x0 DUP4 ADD DUP6 PUSH2 0x1616 JUMP JUMPDEST PUSH2 0x170B PUSH1 0x20 DUP4 ADD DUP5 PUSH2 0x167A JUMP JUMPDEST SWAP4 SWAP3 POP POP POP JUMP JUMPDEST PUSH1 0x0 PUSH1 0xC0 DUP3 ADD SWAP1 POP PUSH2 0x1727 PUSH1 0x0 DUP4 ADD DUP10 PUSH2 0x1616 JUMP JUMPDEST PUSH2 0x1734 PUSH1 0x20 DUP4 ADD DUP9 PUSH2 0x167A JUMP JUMPDEST PUSH2 0x1741 PUSH1 0x40 DUP4 ADD DUP8 PUSH2 0x1616 JUMP JUMPDEST PUSH2 0x174E PUSH1 0x60 DUP4 ADD DUP7 PUSH2 0x167A JUMP JUMPDEST PUSH2 0x175B PUSH1 0x80 DUP4 ADD DUP6 PUSH2 0x167A JUMP JUMPDEST PUSH2 0x1768 PUSH1 0xA0 DUP4 ADD DUP5 PUSH2 0x1616 JUMP JUMPDEST SWAP8 SWAP7 POP POP POP POP POP POP POP JUMP JUMPDEST PUSH1 0x0 PUSH1 0x20 DUP3 ADD SWAP1 POP PUSH2 0x1788 PUSH1 0x0 DUP4 ADD DUP5 PUSH2 0x1625 JUMP JUMPDEST SWAP3 SWAP2 POP POP JUMP JUMPDEST PUSH1 0x0 PUSH1 0x20 DUP3 ADD SWAP1 POP DUP2 DUP2 SUB PUSH1 0x0 DUP4 ADD MSTORE PUSH2 0x17A7 DUP2 PUSH2 0x1634 JUMP JUMPDEST SWAP1 POP SWAP2 SWAP1 POP JUMP JUMPDEST PUSH1 0x0 PUSH1 0x20 DUP3 ADD SWAP1 POP DUP2 DUP2 SUB PUSH1 0x0 DUP4 ADD MSTORE PUSH2 0x17C7 DUP2 PUSH2 0x1657 JUMP JUMPDEST SWAP1 POP SWAP2 SWAP1 POP JUMP JUMPDEST PUSH1 0x0 PUSH1 0x20 DUP3 ADD SWAP1 POP PUSH2 0x17E3 PUSH1 0x0 DUP4 ADD DUP5 PUSH2 0x167A JUMP JUMPDEST SWAP3 SWAP2 POP POP JUMP JUMPDEST PUSH1 0x0 PUSH1 0xE0 DUP3 ADD SWAP1 POP PUSH2 0x17FE PUSH1 0x0 DUP4 ADD DUP11 PUSH2 0x167A JUMP JUMPDEST PUSH2 0x180B PUSH1 0x20 DUP4 ADD DUP10 PUSH2 0x167A JUMP JUMPDEST PUSH2 0x1818 PUSH1 0x40 DUP4 ADD DUP9 PUSH2 0x1616 JUMP JUMPDEST PUSH2 0x1825 PUSH1 0x60 DUP4 ADD DUP8 PUSH2 0x1616 JUMP JUMPDEST PUSH2 0x1832 PUSH1 0x80 DUP4 ADD DUP7 PUSH2 0x167A JUMP JUMPDEST PUSH2 0x183F PUSH1 0xA0 DUP4 ADD DUP6 PUSH2 0x167A JUMP JUMPDEST PUSH2 0x184C PUSH1 0xC0 DUP4 ADD DUP5 PUSH2 0x1616 JUMP JUMPDEST SWAP9 SWAP8 POP POP POP POP POP POP POP POP JUMP JUMPDEST PUSH1 0x0 PUSH2 0x100 DUP3 ADD SWAP1 POP PUSH2 0x186E PUSH1 0x0 DUP4 ADD DUP12 PUSH2 0x167A JUMP JUMPDEST PUSH2 0x187B PUSH1 0x20 DUP4 ADD DUP11 PUSH2 0x167A JUMP JUMPDEST PUSH2 0x1888 PUSH1 0x40 DUP4 ADD DUP10 PUSH2 0x167A JUMP JUMPDEST PUSH2 0x1895 PUSH1 0x60 DUP4 ADD DUP9 PUSH2 0x1616 JUMP JUMPDEST PUSH2 0x18A2 PUSH1 0x80 DUP4 ADD DUP8 PUSH2 0x1616 JUMP JUMPDEST PUSH2 0x18AF PUSH1 0xA0 DUP4 ADD DUP7 PUSH2 0x167A JUMP JUMPDEST PUSH2 0x18BC PUSH1 0xC0 DUP4 ADD DUP6 PUSH2 0x167A JUMP JUMPDEST PUSH2 0x18C9 PUSH1 0xE0 DUP4 ADD DUP5 PUSH2 0x1616 JUMP JUMPDEST SWAP10 SWAP9 POP POP POP POP POP POP POP POP POP JUMP JUMPDEST PUSH1 0x0 DUP3 DUP3 MSTORE PUSH1 0x20 DUP3 ADD SWAP1 POP SWAP3 SWAP2 POP POP JUMP JUMPDEST PUSH1 0x0 PUSH2 0x18F2 DUP3 PUSH2 0x1918 JUMP JUMPDEST SWAP1 POP SWAP2 SWAP1 POP JUMP JUMPDEST PUSH1 0x0 DUP2 ISZERO ISZERO SWAP1 POP SWAP2 SWAP1 POP JUMP JUMPDEST PUSH1 0x0 DUP2 SWAP1 POP PUSH2 0x1913 DUP3 PUSH2 0x1A00 JUMP JUMPDEST SWAP2 SWAP1 POP JUMP JUMPDEST PUSH1 0x0 PUSH20 0xFFFFFFFFFFFFFFFFFFFFFFFFFFFFFFFFFFFFFFFF DUP3 AND SWAP1 POP SWAP2 SWAP1 POP JUMP JUMPDEST PUSH1 0x0 DUP2 SWAP1 POP SWAP2 SWAP1 POP JUMP JUMPDEST PUSH1 0x0 PUSH2 0x194D DUP3 PUSH2 0x1905 JUMP JUMPDEST SWAP1 POP SWAP2 SWAP1 POP JUMP JUMPDEST PUSH32 0x4E487B7100000000000000000000000000000000000000000000000000000000 PUSH1 0x0 MSTORE PUSH1 0x21 PUSH1 0x4 MSTORE PUSH1 0x24 PUSH1 0x0 REVERT JUMPDEST PUSH1 0x0 DUP1 REVERT JUMPDEST PUSH32 0x596F7520617265206E6F7420706572736F6E2077686F20696E69746961746564 PUSH1 0x0 DUP3 ADD MSTORE PUSH32 0x2074686520747261646521000000000000000000000000000000000000000000 PUSH1 0x20 DUP3 ADD MSTORE POP JUMP JUMPDEST PUSH32 0x497473206E6F74204F50454E20666F7220737761702100000000000000000000 PUSH1 0x0 DUP3 ADD MSTORE POP JUMP JUMPDEST PUSH1 0x3 DUP2 LT PUSH2 0x1A11 JUMPI PUSH2 0x1A10 PUSH2 0x1954 JUMP JUMPDEST JUMPDEST POP JUMP JUMPDEST PUSH2 0x1A1D DUP2 PUSH2 0x18E7 JUMP JUMPDEST DUP2 EQ PUSH2 0x1A28 JUMPI PUSH1 0x0 DUP1 REVERT JUMPDEST POP JUMP JUMPDEST PUSH2 0x1A34 DUP2 PUSH2 0x18F9 JUMP JUMPDEST DUP2 EQ PUSH2 0x1A3F JUMPI PUSH1 0x0 DUP1 REVERT JUMPDEST POP JUMP JUMPDEST PUSH2 0x1A4B DUP2 PUSH2 0x1938 JUMP JUMPDEST DUP2 EQ PUSH2 0x1A56 JUMPI PUSH1 0x0 DUP1 REVERT JUMPDEST POP JUMP INVALID LOG2 PUSH5 0x6970667358 0x22 SLT KECCAK256 0xD3 CODESIZE DUP6 0x2D 0xE9 SGT LT 0xED SWAP13 JUMP DIV PUSH13 0xEA5964B56AE1FF9678DE7F7272 0xBB 0xD4 0xAA 0x5D CHAINID 0xDD SWAP12 PUSH5 0x736F6C6343 STOP ADDMOD SMOD STOP CALLER "},"methodIdentifiers":{"check(uint256)":"5f72f450","close(uint256)":"0aebeb4e","expire(uint256)":"bf81bf43","open(uint256,address,uint256,address,uint256,uint256)":"055fabf4","swapStates(uint256)":"fe8b3baa","swaps(uint256)":"f09c5829"}}}}}