{
  "_format": "hh-sol-artifact-1",
  "contractName": "AtomicSwapERC20",
  "sourceName": "contracts/ERC20_TokenSwappingContract.sol",
  "abi": [
    {
      "anonymous": false,
      "inputs": [
        {
          "indexed": false,
          "internalType": "uint256",
          "name": "swapId",
          "type": "uint256"
        }
      ],
      "name": "Close",
      "type": "event"
    },
    {
      "anonymous": false,
      "inputs": [
        {
          "indexed": false,
          "internalType": "uint256",
          "name": "_swapID",
          "type": "uint256"
        },
        {
          "indexed": false,
          "internalType": "uint256",
          "name": "_timelock",
          "type": "uint256"
        },
        {
          "indexed": false,
          "internalType": "address",
          "name": "_erc20ContractAddressDT",
          "type": "address"
        },
        {
          "indexed": false,
          "internalType": "address",
          "name": "_erc20ContractAddressWDT",
          "type": "address"
        },
        {
          "indexed": false,
          "internalType": "uint256",
          "name": "_erc20TokenAmountDT",
          "type": "uint256"
        },
        {
          "indexed": false,
          "internalType": "uint256",
          "name": "_erc20TokenAmountWDT",
          "type": "uint256"
        },
        {
          "indexed": false,
          "internalType": "address",
          "name": "_whoInitiatedTrade",
          "type": "address"
        }
      ],
      "name": "Open",
      "type": "event"
    },
    {
      "inputs": [
        {
          "internalType": "uint256",
          "name": "_swapId",
          "type": "uint256"
        }
      ],
      "name": "check",
      "outputs": [
        {
          "internalType": "address",
          "name": "erc20ContractAddressDT",
          "type": "address"
        },
        {
          "internalType": "uint256",
          "name": "erc20TokenAmountDT",
          "type": "uint256"
        },
        {
          "internalType": "address",
          "name": "erc20ContractAddressWDT",
          "type": "address"
        },
        {
          "internalType": "uint256",
          "name": "erc20TokenAmountWDT",
          "type": "uint256"
        },
        {
          "internalType": "uint256",
          "name": "timeLock",
          "type": "uint256"
        },
        {
          "internalType": "address",
          "name": "whoInitiatedTrade",
          "type": "address"
        }
      ],
      "stateMutability": "view",
      "type": "function"
    },
    {
      "inputs": [
        {
          "internalType": "uint256",
          "name": "_swapId",
          "type": "uint256"
        }
      ],
      "name": "close",
      "outputs": [],
      "stateMutability": "nonpayable",
      "type": "function"
    },
    {
      "inputs": [
        {
          "internalType": "uint256",
          "name": "_swapId",
          "type": "uint256"
        }
      ],
      "name": "expire",
      "outputs": [],
      "stateMutability": "nonpayable",
      "type": "function"
    },
    {
      "inputs": [
        {
          "internalType": "uint256",
          "name": "_swapId",
          "type": "uint256"
        },
        {
          "internalType": "address",
          "name": "_erc20ContractAddressDT",
          "type": "address"
        },
        {
          "internalType": "uint256",
          "name": "_erc20ValueDT",
          "type": "uint256"
        },
        {
          "internalType": "address",
          "name": "_erc20ContractAddressWDT",
          "type": "address"
        },
        {
          "internalType": "uint256",
          "name": "_erc20ValueWDT",
          "type": "uint256"
        },
        {
          "internalType": "uint256",
          "name": "_timeLock",
          "type": "uint256"
        }
      ],
      "name": "open",
      "outputs": [],
      "stateMutability": "nonpayable",
      "type": "function"
    },
    {
      "inputs": [
        {
          "internalType": "uint256",
          "name": "",
          "type": "uint256"
        }
      ],
      "name": "swapStates",
      "outputs": [
        {
          "internalType": "enum AtomicSwapERC20.States",
          "name": "",
          "type": "uint8"
        }
      ],
      "stateMutability": "view",
      "type": "function"
    },
    {
      "inputs": [
        {
          "internalType": "uint256",
          "name": "",
          "type": "uint256"
        }
      ],
      "name": "swaps",
      "outputs": [
        {
          "internalType": "uint256",
          "name": "swapId",
          "type": "uint256"
        },
        {
          "internalType": "uint256",
          "name": "startTime",
          "type": "uint256"
        },
        {
          "internalType": "uint256",
          "name": "timeLock",
          "type": "uint256"
        },
        {
          "internalType": "address",
          "name": "erc20ContractAddressDT",
          "type": "address"
        },
        {
          "internalType": "address",
          "name": "erc20ContractAddressWDT",
          "type": "address"
        },
        {
          "internalType": "uint256",
          "name": "erc20TokenAmountDT",
          "type": "uint256"
        },
        {
          "internalType": "uint256",
          "name": "erc20TokenAmountWDT",
          "type": "uint256"
        },
        {
          "internalType": "address",
          "name": "whoInitiatedTrade",
          "type": "address"
        }
      ],
      "stateMutability": "view",
      "type": "function"
    }
  ],
  "bytecode": "0x608060405234801561001057600080fd5b50611a8f806100206000396000f3fe608060405234801561001057600080fd5b50600436106100625760003560e01c8063055fabf4146100675780630aebeb4e146100835780635f72f4501461009f578063bf81bf43146100d4578063f09c5829146100f0578063fe8b3baa14610127575b600080fd5b610081600480360381019061007c9190611589565b610157565b005b61009d6004803603810190610098919061152f565b610604565b005b6100b960048036038101906100b4919061152f565b610d84565b6040516100cb96959493929190611712565b60405180910390f35b6100ee60048036038101906100e9919061152f565b610f7b565b005b61010a6004803603810190610105919061152f565b6113e3565b60405161011e989796959493929190611858565b60405180910390f35b610141600480360381019061013c919061152f565b61148b565b60405161014e9190611773565b60405180910390f35b61016b67a2e19336b2f8ef6660c01b6114ab565b61017f674d64c5a75e8c51ec60c01b6114ab565b610193679133ec30cc8e21a160c01b6114ab565b60008590506101ac67ed68028b772fd8f360c01b6114ab565b6101c067d13fe66bf2dbba9260c01b6114ab565b6101d467de7e66aa9983375b60c01b6114ab565b848173ffffffffffffffffffffffffffffffffffffffff1663dd62ed3e33306040518363ffffffff1660e01b8152600401610210929190611689565b60206040518083038186803b15801561022857600080fd5b505afa15801561023c573d6000803e3d6000fd5b505050506040513d601f19601f82011682018060405250810190610260919061155c565b101561026b57600080fd5b61027f67a2e71aa7d81460a760c01b6114ab565b610293679b8f192690db4e5d60c01b6114ab565b6102a767f63c115d6c6d825360c01b6114ab565b6102bb674db7651f937bd96a60c01b6114ab565b8073ffffffffffffffffffffffffffffffffffffffff166323b872dd3330886040518463ffffffff1660e01b81526004016102f8939291906116b2565b602060405180830381600087803b15801561031257600080fd5b505af1158015610326573d6000803e3d6000fd5b505050506040513d601f19601f8201168201806040525081019061034a9190611502565b61035357600080fd5b6103676706882a967b7c026b60c01b6114ab565b61037a66dc0b384d5503a960c01b6114ab565b61038e672ff719840c69bfb960c01b6114ab565b60006040518061010001604052808981526020014281526020018481526020018873ffffffffffffffffffffffffffffffffffffffff1681526020018673ffffffffffffffffffffffffffffffffffffffff1681526020018781526020018581526020013373ffffffffffffffffffffffffffffffffffffffff168152509050610422676c9c9724ea6caf9960c01b6114ab565b806000808a815260200190815260200160002060008201518160000155602082015181600101556040820151816002015560608201518160030160006101000a81548173ffffffffffffffffffffffffffffffffffffffff021916908373ffffffffffffffffffffffffffffffffffffffff16021790555060808201518160040160006101000a81548173ffffffffffffffffffffffffffffffffffffffff021916908373ffffffffffffffffffffffffffffffffffffffff16021790555060a0820151816005015560c0820151816006015560e08201518160070160006101000a81548173ffffffffffffffffffffffffffffffffffffffff021916908373ffffffffffffffffffffffffffffffffffffffff16021790555090505061055367a75f7e0e2c1435fd60c01b6114ab565b6000600160008a815260200190815260200160002060006101000a81548160ff0219169083600281111561058a57610589611954565b5b02179055506105a367b59c911b3c7d608260c01b6114ab565b6105b767fd001e1700d5f35d60c01b6114ab565b7f6585f302baa66637b36c127a1a548986f058fb796cfeec8e35be8d6ad96a5fee888489888a89336040516105f297969594939291906117e9565b60405180910390a15050505050505050565b6106186791ac58cfbe56c31960c01b6114ab565b8061062d677367b3977e0707e360c01b6114ab565b61064167274ceba91a20d5b060c01b6114ab565b61065567b1480dcf7fc73b9860c01b6114ab565b61066967c9698764014d104a60c01b6114ab565b6000600281111561067d5761067c611954565b5b6001600083815260200190815260200160002060009054906101000a900460ff1660028111156106b0576106af611954565b5b146106f0576040517f08c379a00000000000000000000000000000000000000000000000000000000081526004016106e7906117ae565b60405180910390fd5b610704679a11ef46655c5f9560c01b6114ab565b610718677e158120276a305860c01b6114ab565b61072c672eb75429eb5f7b2860c01b6114ab565b610740679a5c43bb484a5a9760c01b6114ab565b61075467e37dc263ea22a92c60c01b6114ab565b610768670999e6aa4f24c0c360c01b6114ab565b6000806000848152602001908152602001600020604051806101000160405290816000820154815260200160018201548152602001600282015481526020016003820160009054906101000a900473ffffffffffffffffffffffffffffffffffffffff1673ffffffffffffffffffffffffffffffffffffffff1673ffffffffffffffffffffffffffffffffffffffff1681526020016004820160009054906101000a900473ffffffffffffffffffffffffffffffffffffffff1673ffffffffffffffffffffffffffffffffffffffff1673ffffffffffffffffffffffffffffffffffffffff16815260200160058201548152602001600682015481526020016007820160009054906101000a900473ffffffffffffffffffffffffffffffffffffffff1673ffffffffffffffffffffffffffffffffffffffff1673ffffffffffffffffffffffffffffffffffffffff168152505090506108d2675acd4b31d4a0612d60c01b6114ab565b600180600085815260200190815260200160002060006101000a81548160ff0219169083600281111561090857610907611954565b5b021790555061092167fe133f4e5967243060c01b6114ab565b61093567d97969b3982a094560c01b6114ab565b60008160600151905061095267950aebf8b4f7d25f60c01b6114ab565b61096667adc1ee859bc1dbb560c01b6114ab565b600082608001519050610983673748d300b339cdc460c01b6114ab565b610997673ff0c9f8f6c0b7df60c01b6114ab565b6109ab67eb0de9930abc54b860c01b6114ab565b8073ffffffffffffffffffffffffffffffffffffffff1663dd62ed3e33306040518363ffffffff1660e01b81526004016109e6929190611689565b60206040518083038186803b1580156109fe57600080fd5b505afa158015610a12573d6000803e3d6000fd5b505050506040513d601f19601f82011682018060405250810190610a36919061155c565b8360c001511115610a4657600080fd5b610a5a67e9702762c9f9323460c01b6114ab565b610a6e67dd1ac2d687cccb7760c01b6114ab565b610a8267a5292d94b09a854e60c01b6114ab565b610a9667c5efead5b7a1d72860c01b6114ab565b8073ffffffffffffffffffffffffffffffffffffffff166323b872dd33308660c001516040518463ffffffff1660e01b8152600401610ad7939291906116b2565b602060405180830381600087803b158015610af157600080fd5b505af1158015610b05573d6000803e3d6000fd5b505050506040513d601f19601f82011682018060405250810190610b299190611502565b610b3257600080fd5b610b46673b8590b1900f612660c01b6114ab565b610b5a674163e74403f9d8e960c01b6114ab565b610b6e67d353254de76fef3a60c01b6114ab565b610b8267c9f94c938fda908a60c01b6114ab565b8173ffffffffffffffffffffffffffffffffffffffff1663a9059cbb338560a001516040518363ffffffff1660e01b8152600401610bc19291906116e9565b602060405180830381600087803b158015610bdb57600080fd5b505af1158015610bef573d6000803e3d6000fd5b505050506040513d601f19601f82011682018060405250810190610c139190611502565b610c1c57600080fd5b610c30673defac7dd8813a6460c01b6114ab565b610c4467cd550fd6542e936c60c01b6114ab565b610c58672b5352995d5debb360c01b6114ab565b610c6c6720cca1367117d3de60c01b6114ab565b8073ffffffffffffffffffffffffffffffffffffffff1663a9059cbb8460e001518560c001516040518363ffffffff1660e01b8152600401610caf9291906116e9565b602060405180830381600087803b158015610cc957600080fd5b505af1158015610cdd573d6000803e3d6000fd5b505050506040513d601f19601f82011682018060405250810190610d019190611502565b610d0a57600080fd5b610d1e672dfc77ab1c697a1f60c01b6114ab565b610d32672cc73cb5a6b5e15260c01b6114ab565b610d466796fb57f93b42ddbd60c01b6114ab565b7fbf67515a38ee520223d32c1266d52101c30d936ed1f3e436c8caeb0a43cb06bf85604051610d7591906117ce565b60405180910390a15050505050565b600080600080600080610da1670a1a9946285abd4060c01b6114ab565b610db5673bf21eb2556655e060c01b6114ab565b610dc9679ca6f1bc392b637c60c01b6114ab565b6000806000898152602001908152602001600020604051806101000160405290816000820154815260200160018201548152602001600282015481526020016003820160009054906101000a900473ffffffffffffffffffffffffffffffffffffffff1673ffffffffffffffffffffffffffffffffffffffff1673ffffffffffffffffffffffffffffffffffffffff1681526020016004820160009054906101000a900473ffffffffffffffffffffffffffffffffffffffff1673ffffffffffffffffffffffffffffffffffffffff1673ffffffffffffffffffffffffffffffffffffffff16815260200160058201548152602001600682015481526020016007820160009054906101000a900473ffffffffffffffffffffffffffffffffffffffff1673ffffffffffffffffffffffffffffffffffffffff1673ffffffffffffffffffffffffffffffffffffffff16815250509050610f33674d269dff6ede2dcf60c01b6114ab565b610f4767a11294bf48fefc4260c01b6114ab565b80606001518160a0015182608001518360c0015184604001518560e001519650965096509650965096505091939550919395565b610f8f677114bc2374a226de60c01b6114ab565b80610fa4677367b3977e0707e360c01b6114ab565b610fb867274ceba91a20d5b060c01b6114ab565b610fcc67b1480dcf7fc73b9860c01b6114ab565b610fe067c9698764014d104a60c01b6114ab565b60006002811115610ff457610ff3611954565b5b6001600083815260200190815260200160002060009054906101000a900460ff16600281111561102757611026611954565b5b14611067576040517f08c379a000000000000000000000000000000000000000000000000000000000815260040161105e906117ae565b60405180910390fd5b61107b679a11ef46655c5f9560c01b6114ab565b61108f677e158120276a305860c01b6114ab565b6110a367ec9c224ef7515e2060c01b6114ab565b6110b7671d184a534742722760c01b6114ab565b816110cc67eb727340fdf0f0c560c01b6114ab565b6110e067f01c9c743878e85e60c01b6114ab565b6110f467d823672be30f10f260c01b6114ab565b6111086746d24b33811bb34860c01b6114ab565b60008082815260200190815260200160002060070160009054906101000a900473ffffffffffffffffffffffffffffffffffffffff1673ffffffffffffffffffffffffffffffffffffffff163373ffffffffffffffffffffffffffffffffffffffff16146111ab576040517f08c379a00000000000000000000000000000000000000000000000000000000081526004016111a29061178e565b60405180910390fd5b6111bf6782e3872f7e2b462a60c01b6114ab565b6111d367308c029139653c6460c01b6114ab565b6111e76785355ed1add953a260c01b6114ab565b6111fb6798b11b2d7a85de4560c01b6114ab565b61120f677a547703a9f0e3d060c01b6114ab565b60026001600085815260200190815260200160002060006101000a81548160ff0219169083600281111561124657611245611954565b5b021790555061125f679d625433195ff95260c01b6114ab565b611273672bd844fc18b18cc560c01b6114ab565b600080600085815260200190815260200160002060030160009054906101000a900473ffffffffffffffffffffffffffffffffffffffff1690506112c167e55713d7b0dabc5f60c01b6114ab565b6112d56779995484ba81b78860c01b6114ab565b6112e9676fa80d3f1a04a35260c01b6114ab565b8073ffffffffffffffffffffffffffffffffffffffff1663a9059cbb60008087815260200190815260200160002060070160009054906101000a900473ffffffffffffffffffffffffffffffffffffffff16600080888152602001908152602001600020600501546040518363ffffffff1660e01b815260040161136e9291906116e9565b602060405180830381600087803b15801561138857600080fd5b505af115801561139c573d6000803e3d6000fd5b505050506040513d601f19601f820116820180604052508101906113c09190611502565b6113c957600080fd5b6113dd6764126df52a3fbc6d60c01b6114ab565b50505050565b60006020528060005260406000206000915090508060000154908060010154908060020154908060030160009054906101000a900473ffffffffffffffffffffffffffffffffffffffff16908060040160009054906101000a900473ffffffffffffffffffffffffffffffffffffffff16908060050154908060060154908060070160009054906101000a900473ffffffffffffffffffffffffffffffffffffffff16905088565b60016020528060005260406000206000915054906101000a900460ff1681565b50565b6000813590506114bd81611a14565b92915050565b6000815190506114d281611a2b565b92915050565b6000813590506114e781611a42565b92915050565b6000815190506114fc81611a42565b92915050565b60006020828403121561151857611517611983565b5b6000611526848285016114c3565b91505092915050565b60006020828403121561154557611544611983565b5b6000611553848285016114d8565b91505092915050565b60006020828403121561157257611571611983565b5b6000611580848285016114ed565b91505092915050565b60008060008060008060c087890312156115a6576115a5611983565b5b60006115b489828a016114d8565b96505060206115c589828a016114ae565b95505060406115d689828a016114d8565b94505060606115e789828a016114ae565b93505060806115f889828a016114d8565b92505060a061160989828a016114d8565b9150509295509295509295565b61161f816118e7565b82525050565b61162e81611942565b82525050565b6000611641602b836118d6565b915061164c82611988565b604082019050919050565b60006116646016836118d6565b915061166f826119d7565b602082019050919050565b61168381611938565b82525050565b600060408201905061169e6000830185611616565b6116ab6020830184611616565b9392505050565b60006060820190506116c76000830186611616565b6116d46020830185611616565b6116e1604083018461167a565b949350505050565b60006040820190506116fe6000830185611616565b61170b602083018461167a565b9392505050565b600060c0820190506117276000830189611616565b611734602083018861167a565b6117416040830187611616565b61174e606083018661167a565b61175b608083018561167a565b61176860a0830184611616565b979650505050505050565b60006020820190506117886000830184611625565b92915050565b600060208201905081810360008301526117a781611634565b9050919050565b600060208201905081810360008301526117c781611657565b9050919050565b60006020820190506117e3600083018461167a565b92915050565b600060e0820190506117fe600083018a61167a565b61180b602083018961167a565b6118186040830188611616565b6118256060830187611616565b611832608083018661167a565b61183f60a083018561167a565b61184c60c0830184611616565b98975050505050505050565b60006101008201905061186e600083018b61167a565b61187b602083018a61167a565b611888604083018961167a565b6118956060830188611616565b6118a26080830187611616565b6118af60a083018661167a565b6118bc60c083018561167a565b6118c960e0830184611616565b9998505050505050505050565b600082825260208201905092915050565b60006118f282611918565b9050919050565b60008115159050919050565b600081905061191382611a00565b919050565b600073ffffffffffffffffffffffffffffffffffffffff82169050919050565b6000819050919050565b600061194d82611905565b9050919050565b7f4e487b7100000000000000000000000000000000000000000000000000000000600052602160045260246000fd5b600080fd5b7f596f7520617265206e6f7420706572736f6e2077686f20696e6974696174656460008201527f2074686520747261646521000000000000000000000000000000000000000000602082015250565b7f497473206e6f74204f50454e20666f7220737761702100000000000000000000600082015250565b60038110611a1157611a10611954565b5b50565b611a1d816118e7565b8114611a2857600080fd5b50565b611a34816118f9565b8114611a3f57600080fd5b50565b611a4b81611938565b8114611a5657600080fd5b5056fea2646970667358221220d338852de91310ed9c56046cea5964b56ae1ff9678de7f7272bbd4aa5d46dd9b64736f6c63430008070033",
  "linkReferences": {},
  "deployedLinkReferences": {}
}